:020000040800F2
:10000000F80600208901000891010008930100080A
:100010009501000897010008990100080000000000
:100020000000000000000000000000009B0100082C
:100030009D010008000000009F010008590400080D
:10004000A3010008A3010008A3010008A301000800
:10005000A3010008A3010008A3010008A3010008F0
:10006000A3010008A3010008A3010008A3010008E0
:10007000A3010008A301000845020008A30100082D
:10008000A3010008A3010008A3010008A3010008C0
:10009000A3010008A3010008A3010008A3010008B0
:1000A000A3010008A3010008A3010008A3010008A0
:1000B000A3010008A3010008A3010008A301000890
:1000C000A3010008A3010008A3010008A301000880
:1000D000A3010008AD060008A3010008A301000861
:1000E000A3010008A3010008A301000800F002F822
:1000F00000F03AF80AA090E8000C82448344AAF188
:100100000107DA4501D100F02FF8AFF2090EBAE885
:100110000F0013F0010F18BFFB1A43F0010318473B
:100120001809000038090000103A24BF78C878C1C7
:10013000FAD8520724BF30C830C144BF04680C60ED
:10014000704700000023002400250026103A28BF35
:1001500078C1FBD8520728BF30C148BF0B60704739
:100160001FB51FBD10B510BD00F031F81146FFF7E7
:10017000F7FF00F031FC00F04FF803B4FFF7F2FF97
:1001800003BC00F057F800000948804709480047C1
:10019000FEE7FEE7FEE7FEE7FEE7FEE7FEE7FEE737
:1001A000FEE7FEE704480549054A064B7047000094
:1001B00045060008ED000008F8000020F8060020C1
:1001C000F8020020F802002070477047704775461B
:1001D00000F02CF8AE4605006946534620F00700B3
:1001E000854618B020B5FFF7DDFFBDE820404FF091
:1001F00000064FF000074FF000084FF0000BAC4630
:10020000ACE8C009ACE8C009ACE8C009ACE8C0097A
:1002100021F007018D46704710B50446AFF300800A
:100220002046BDE81040FFF7A8BF00000048704717
:100230000800002001491820ABBEFEE7260002009E
:100240007047000080B540F26800C2F20000322121
:1002500000F022F80421C4F20201086840F40050C2
:10026000086080BD82B0019000914421C4F2020177
:10027000086820F00100086001985022C4F20202D0
:10028000106000984822C4F202021060086840F032
:100290000100086002B0704782B0019000915821BF
:1002A000C4F20201086820F001000860019864228D
:1002B000C4F20202106000985C22C4F202021060D4
:1002C000086840F00100086002B0704780B541F254
:1002D0001401C4F20201086840F0010008604421E2
:1002E000C4F20201086840F080000860086840F02D
:1002F000100008604C21C4F2020143F60400C4F26D
:10030000010008606021C4F2020108605821C4F2B3
:100310000201086840F08000086040F26800C2F204
:1003200000003221FFF7B8FF80BD000080B500F06B
:1003300001F880BD84B000200390029041F20001DA
:10034000C4F20201086840F480300860FFE741F21F
:100350000000C4F20200006800F40030029003982C
:1003600001300390FFE702990020019039B9FFE7BF
:100370000398B0F5A06018BF01200190FFE7019835
:10038000C0070028E3D1FFE741F20000C4F20200F9
:1003900000688003002803D5FFE70120029002E0F7
:1003A00000200290FFE70298012851D1FFE742F2B6
:1003B0000001C4F20201086840F0100008600868FB
:1003C00020F003000860086840F00200086041F275
:1003D0000401C4F20201009108680860086808601E
:1003E000086840F480600860086820F47C100860A9
:1003F000086840F4E810086041F20001C4F202010C
:10040000086840F080700860FFE741F20000C4F225
:10041000020000688001002801D4FFE7F5E741F2FF
:100420000401C4F20201086820F0030008600868B3
:1004300040F002000860FFE741F20400C4F202004D
:10044000006800F00C00082801D0FFE7F4E700E0A6
:10045000FFE704B0704700007047000041F2000160
:10046000C4F20201086840F001000860FFE741F2B1
:100470000000C4F2020000688007002801D4FFE7F2
:10048000F5E741F20401C4F2020100200860FFE731
:1004900041F20400C4F20200006810F00C0F01D019
:1004A000FFE7F5E741F20001C4F20201086820F01D
:1004B0008070086041F20402C4F20202106820F465
:1004C0007C101060106840F4A0101060086840F0C4
:1004D00080700860FFE741F20000C4F2020000688B
:1004E0008001002802D4FFE700BFF4E741F20401D5
:1004F000C4F20201086820F003000860086840F0B8
:1005000002000860FFE741F20400C4F20200006844
:1005100000F00C00082801D0FFE7F4E77047000066
:1005200084B0002003900290019041F20400C4F2D4
:100530000200006800F00C0003900398009040B1A6
:10054000FFE7009804280ED0FFE70098082814D091
:1005500056E040F20001C2F2000141F20020C0F278
:100560007A00086056E040F20001C2F2000141F258
:100570000020C0F27A0008604CE041F20400C4F2AE
:100580000200016801F470110291006800F48030EB
:1005900001900299022000EB91400290019860B90D
:1005A000FFE7029840F60011C0F23D01484340F2D7
:1005B0000001C2F20001086021E041F20400C4F22F
:1005C00002000068800300280CD5FFE7029840F67F
:1005D0000011C0F23D01484340F20001C2F20001A7
:1005E00008600BE0029841F20021C0F27A01484312
:1005F00040F20001C2F200010860FFE7FFE709E0F6
:1006000040F20001C2F2000141F20020C0F27A0083
:100610000860FFE741F20400C4F202000068C0B2C3
:10062000010940F62620C0F60000405C0390039AC2
:1006300040F20001C2F200010868D040086004B036
:100640007047000080B541F20002C4F20202106857
:1006500040F00100106041F20401C4F20201086898
:100660000023CFF6FF031840086010684FF6FF73B1
:10067000CFF6F66318401060106820F480201060F8
:10068000086820F4FE00086041F20801C4F202018B
:100690004FF41F000860FFF749FE4EF60851CEF2F6
:1006A00000014FF00060086080BD000080B586B09A
:1006B0005C20C4F202000068C0F132008DF817001F
:1006C00000200490FFE704989DF81710884224DA70
:1006D000FFE7049840F26801C2F20001095C30397A
:1006E00001919DF81710C043084400F083F90346B8
:1006F000019840F2EA01C2F200010A7840F2EC01EE
:10070000C2F2000151F822C000FB03C041F82200F0
:10071000FFE7049801300490D5E740F2EA00C2F206
:1007200000000078C0B9FFE79DF8172040F268008C
:10073000C2F200002A2181549DF817100A183221B4
:1007400051709DF817100A185E2191709DF81710CE
:100750000331FFF787FD17E09DF8172040F268008E
:10076000C2F200002A2181549DF817100A18332183
:1007700051709DF817100A183D2191709DF81710BF
:100780000331FFF76FFDFFE7FFE74820C4F20200E7
:10079000006808B1FFE7F8E740F2EA02C2F200029F
:1007A0001078411CC8B21170022840F08080FFE729
:1007B0000020039040F2EA01C2F20001087040F20A
:1007C000EC01C2F2000100910A6852000A604A6816
:1007D00002EB42024A600A684B685A408A6008602D
:1007E0004860FFE740F2EC00C2F20000806838B3D6
:1007F000FFE740F2EC01C2F20001886846F267624E
:10080000C6F2666280FB023C4FEA9C0303EBDC739A
:1008100003EB8303A0EB43003030DDF80CC040F263
:10082000CC03C2F2000303F80C00886880FB0202CC
:10083000901000EBD2708860039801300390D1E7EC
:1008400000208DF80B008DF80A00FFE79DF80A00E4
:10085000039901EBD171B0EB610F1CDAFFE79DF852
:100860000A0040F2CC02C2F20002105C8DF80B00CC
:100870000398104410F8010C9DF80A1050549DF88C
:100880000B000399114401F8010C9DF80A00013096
:100890008DF80A00DAE7039A40F2CC00C2F20000B9
:1008A0000A21815403990131FFF7DCFCFFE740F294
:1008B0006800C2F200003221FFF7EEFC43F60000B0
:1008C000C4F20100008843F60400C4F2010000886D
:1008D00006B080BD80B541F21801C4F2020108687B
:1008E00040F004000860086840F48040086040F66A
:1008F0000401C4F20101086820F0400008600868A3
:1009000040F0B0000860086820F4406008600868A3
:1009100040F400600860086820F44070086040F609
:100920001001C4F20101086840F48060086043F6D9
:100930000802C4F2010210880020108040F2000179
:10094000C2F2000109684BF2C533C9F2A213A1FB40
:100950000313118841EAD331118043F60C01C4F22C
:1009600001010A8842F400520A800A8842F00C020F
:100970000A8043F61002C4F20102108043F614020A
:10098000C4F201021080108840F0800010801088AE
:1009900040F040001080088840F0100008802520BA
:1009A00000F002F880BD000081B08DF803009DF9D1
:1009B000030000280ED4FFE79DF9031001F01F0289
:1009C000012090404A094EF20011CEF2000141F898
:1009D0002200FFE701B0704780B582B0002001908F
:1009E000FFF73CFDFFF79CFDFFF774FFFFF76EFC80
:1009F000FFE7FEE783B00290012001900020009005
:100A0000FFE70098029988420ADAFFE7019800EBB5
:100A1000800040000190FFE7009801300090F0E76F
:100A2000019803B0704700000000000000000102C0
:100A30000304060708090000580A00080000002007
:100A400004000000280100085C0A000808000020DB
:0C0A5000F00600004401000800A24A0467
:040000050800018965
:00000001FF
