:020000040800F2
:10000000C8170020350200083D0200083F02000822
:1000100041020008430200084502000800000000F9
:10002000000000000000000000000000470200087F
:1000300049020008000000004B02000839270008B0
:100040004F0200084F0200084F0200084F0200084C
:100050004F0200084F0200084F0200084F0200083C
:100060004F020008011700084F0200084F02000865
:100070004F0200084F0200084F0200084F0200081C
:10008000DD1400081D150008991300084F02000830
:100090004F0200084F0200084F0200084F020008FC
:1000A0004F0200084F0200084F0200084F020008EC
:1000B0004F0200084F020008F52900084F0200080F
:1000C0005D1800084F0200084F0200084F020008A8
:1000D0004F020008F12B00084F0200084F020008F1
:1000E0004F0200084F0200084F02000800F002F81B
:1000F00000F090F80AA090E8000C82448344AAF132
:100100000107DA4501D100F085F8AFF2090EBAE82F
:100110000F0013F0010F18BFFB1A43F0010318473B
:10012000F85A0000185B0000103A24BF78C878C164
:10013000FAD8520724BF30C830C144BF04680C60ED
:10014000704700000023002400250026103A28BF35
:1001500078C1FBD8520728BF30C148BF0B60704739
:100160006E2900F04D81702900F08F82662905F01C
:100170000084652905F0FD83672905F0FA8361296C
:1001800005F0F98303681B0A28BF41F08001692943
:1001900000F0FA80642900F0F780752900F0F480FF
:1001A0006F2900F01D82782900F05B82E92900F0B8
:1001B000B781E42900F0B481F52900F0B181EF297D
:1001C00000F01A82F82900F05A820368DB0928BF80
:1001D00041F08001632900F05F87732900F0648794
:1001E000E32900F06F87F32900F07487002070473F
:1001F0001FB500F0C9FF04000020002104F034FB0B
:10020000401C60600020002104F018FBE0601FBD6E
:1002100010B510BD00F08AFF1146FFF7E9FF02F0AC
:100220002BFF01F067F803B4FFF7F2FF03BC01F006
:10023000ABF800000948804709480047FEE7FEE7A1
:10024000FEE7FEE7FEE7FEE7FEE7FEE7FEE7FEE786
:1002500004480549054A064B70470000312900084B
:10026000ED000008C8110020C8170020C8130020A6
:10027000C81300200FB41CB5084B06AA7B4469467E
:100280000090059800F0D5F804460020694600F07B
:10029000E3F820461CBC5DF814FB0000D901000007
:1002A000002800DA4042704770477047704710B529
:1002B00000F0BAFA006810BD10B5044600F0B4FAB8
:1002C000046010BD70B5044685690068C10601D59B
:1002D000302600E02026C00707D070BDD4E90121F8
:1002E00030469047206A401C20626D1EF6D570BDD6
:1002F00070B5044685690078C00707D170BDD4E9A0
:10030000012120209047206A401C20626D1EF6D5F6
:1003100070BD09684A0501D540B27047C905FCD5D2
:1003200000B2704709684A0501D5C0B27047C905D7
:10033000FCD580B2704770B50C460546012A05D041
:100340002878800600D5EA69002302E0012305E051
:100350005B1C934202D2E05C0028F9D1A869E61840
:10036000C01AA861286A184428622846FFF7AAFF25
:1003700004E0D5E9012114F8010B9047B442F8D309
:100380002846FFF7B5FF70BD2DE9F0410646002471
:1003900010687529314616A510D0FFF7BAFF00285E
:1003A00002DA404213A507E031688A0701D512A599
:1003B00002E0490704D511A5012401E0FFF7B2FFCF
:1003C00000210A2206F1240709E0B0FBF2FCB0FB91
:1003D000F2F302FB1C00303078541846491C002808
:1003E000F3D123462A463046BDE8F04100F065BA15
:1003F000000000002D0000002B0000002000000085
:1004000011680268006A530501D508700AE0D30537
:1004100001D5088006E0130603D5C217C1E9000222
:1004200000E008600120704701694A1C02610878F9
:10043000704700B58FB0CDE9013100210591054924
:100440007944CDE903101146684600F029F90FB050
:1004500000BD0000E5FFFFFF0A6802F8010B0A601B
:10046000704700002DE9FF5F15468A460446DFF815
:10047000AC80F8440027D8E900103E46CDE90010D2
:1004800010E03AF816106A4602A800F027FE411C58
:1004900007D02178890603D5E269391891420DD831
:1004A0000744761C2078800602D5E069B84205DD55
:1004B000AE42E6DB3AF816000028E2D1A069C01B84
:1004C000A0612046FFF7FEFED8E90010CDE900103C
:1004D000002017E03AF818106A4602A800F0FEFD66
:1004E000B0F1FF3F81460BD000250DF1080B05E070
:1004F000D4E901211BF8050090476D1C4D45F7D349
:1005000008F10100B0428046E4DB206A38442062F2
:100510002046FFF7EDFEBDE8FF9F00008256000079
:100520002DE9F0418046D21D22F007020025D2E9D4
:100530000002F52915A614D0011E72F1000106DA99
:100540000023D0EB030063EB020211A608E0D8F809
:1005500000108B0701D50FA602E0490701D50EA6B2
:1005600001251146002408F1240704E000F060F999
:1005700030323A55641C50EA0102F7D12B4632461C
:1005800021464046BDE8F04100F097B90000000068
:100590002D0000002B0000002000000030B40021DE
:1005A00000F1240408E002F00705D208303542EAE1
:1005B0004372DB086554491C52EA0305F3D1046811
:1005C000002310A2250708D504F020040C4304D012
:1005D000C46901230CA2641EC46130BC00F06DB973
:1005E00010B5044621461068FFF79CFE02462046DF
:1005F000BDE810400023D1E7D21D22F00701D1E968
:100600000023CBE70000000030000000F0B40D46EE
:100610000188090502D5214C7C4402E01F4C7C4432
:100620000E34002100F1240608E002F00F07120941
:10063000E75D42EA03721B097754491C52EA03073B
:10064000F3D102780023120704D5702D06D009B12A
:10065000022311342246F0BC00F02FB901231034DC
:10066000F8E770B504460D4621461068FFF75AFEBC
:10067000024629462046BDE870400023C6E7D21D49
:1006800022F00703D3E90023C0E70368126843F0B0
:10069000200303600823C3610023B7E7E45400008C
:1006A0002DE9F05F894604464FF0000ADFF874B187
:1006B000FB44C0F820A02046E1688847002874D099
:1006C000252806D0D4E901219047206A401C2062E9
:1006D000F1E700265F462046E16888472028054666
:1006E00007DB312D05D2781910F8200C08B106432C
:1006F000F1E7B00701D526F00406C4F81CA00027D6
:10070000C4F818A02A2D09D0284603F073FB38B38B
:1007100004EB8708303DC8F8185019E059F8041B5D
:10072000204604EB87029161E1688847012F054666
:1007300018D1E069002820DA26F020061DE0D8F85C
:10074000180000EB800005EB40003038C8F81800B6
:100750002046E1688847054603F04CFB0028EED1AF
:10076000012F0AD02E2D08D12046E16888477F1C32
:100770000546022F46F02006C4DBA069002803DAF4
:10078000404246F00106A061F00701D026F01006B5
:100790006C2D0BD0682D09D04C2D39D06A2D35D059
:1007A000742D35D07A2D33D016E038E0E1682F462D
:1007B00020468847B842054609D16C2F26D04FF411
:1007C0008060E168064320468847054604E06C2FB8
:1007D0001AD04FF4807006430DB3A5F141001928DB
:1007E00002D8203546F400664A462946204626604F
:1007F0004E46FFF7B5FC80B101280BD0F61D26F060
:10080000070000F1080956E74020E4E78020D8E718
:100810000020D6E706F104094DE7284652E7206A92
:10082000BDE8F09F7454000000487047800000202D
:1008300030B5B0F10A0271F100034FEA900E4EEAB2
:10084000817EB0EB0E0061EB91014FEA101E4EEA83
:10085000017E10EB0E0041EB11114FEA102E4EEA13
:10086000016E10EB0E0041EB11214FEA104E4EEAE3
:10087000014E10EB0E0041EB1141401841F1000117
:100880004FEAD00040EA41704FEAD1014FEA8104BB
:1008900044EA907410EB800544EB01046D1944EBBD
:1008A0000404521BA3414FF0000348BF0A3200D595
:1008B00030BD401C41F1000130BD2DE9F0470D462F
:1008C00099469246044600F124080168880604D53A
:1008D000E06921F01001216000E00120A84201DD63
:1008E000471B00E00027A1697A1902EB0900081AEA
:1008F000A0612078C00602D42046FFF7E3FC002662
:1009000008E0D4E901211AF806009047206A401C4B
:10091000761C20624E45F4DB2078C0060AD52046BE
:10092000FFF7D0FC06E0D4E9012130209047206A8F
:10093000401C2062381EA7F10107F4DC07E0D4E96F
:10094000012118F805009047206A401C2062281EEB
:10095000A5F10105F3DC2046FFF7CAFC207800066C
:1009600002D50220BDE8F0870120FBE72DE9FF4F0B
:100970000C461E464FF0FF378BB0D2E90001DDF880
:1009800060800A908A46C1F30A5505B93D460021A8
:1009900008464FF00000BAF1000F00F4400005DAFD
:1009A00000EB80004FF4400101EA50004FEA9059FB
:1009B000B9F1010F00DDB9460A9850EA4A000ED09D
:1009C00044F61050A5F2FF3545432F14B8F1000F3F
:1009D0001ED07542291E1EDDC9F100021CE0B8F1CF
:1009E000010F4FF0000001D0302103E0F24305E099
:1009F0002154401CB042FBDB304600220021215430
:100A00000B99C1F80880C1E900200FB0BDE8F08F54
:100A1000BD1B6D1CDEE74A4600DA694206A800F0FD
:100A2000F7FB06AB93E8070003AB83E807005046EB
:100A30000A9902F08CFD8DE80700A0F500501F38E0
:100A400000900398002D0ADD42F21F014A46084437
:100A5000002303A90390684602F0F6FF09E0A0F521
:100A600000504A461F38002303A90390684603F04C
:100A700000F88DE807000004000C03D04FF0FF30B1
:100A8000410800E01046B8F1000F03D000220092A8
:100A900015461EE0751E05D4FFF7CAFE30326255BA
:100AA0006D1EF9D5B3460122084302D000227F1CF7
:100AB00004E02078302801D100227F1E002A099707
:100AC00084D01DE0112D07DAFFF7B2FE30326255F7
:100AD0006D1C50EA0102F5D1084302D00098C8B15C
:100AE0000EE00021681E05E0235C625C6354225422
:100AF000401E491C8142F7DBAB46A81B401E0990F3
:100B0000002004F80B000B98099AC0F80880C0E98F
:100B1000002B7AE711264FF0000857E72DE9F04F38
:100B200088460446D21D22F0070191B0D1E90001A8
:100B3000CDE90A0103F0D4F802460B98C00F01D0AA
:100B40002D2007E02068810701D52B2002E020211D
:100B500001EAC000032A099001D0072A05DB0346F9
:100B60004146204600F014FB0BE12078800601D5B9
:100B7000E06900E00620B8F1650F814606D0B8F1C3
:100B8000660F18D0B8F1670F70D131E00020B9F1CD
:100B9000110F009001DB112301E009F101030AAA02
:100BA00001A90CA8FFF7E2FEDDE90C70002609F1AF
:100BB0000105834647E001204B4600904FF0004777
:100BC0000AAA01A90CA8FFF7D1FEDDE90DB00C9926
:100BD0005D46002610B909F101000D18B9EB0500BA
:100BE00003D4C0F1FF3609F10105A5EB09002BE0A4
:100BF000B9F1010F01DA4FF001090020B9F1110F2D
:100C00000090484601DD112300E003460AAA01A92D
:100C10000CA8FFF7ABFEDDE90C704D4600268346BD
:100C2000207800070AD4AB4500DA5D4601A8012D03
:100C300004DD411911F8011C302907D04F4502DAB3
:100C400017F1040F04DA012082460FE06D1EEEE773
:100C5000002F02DCED1B3E4403E0781CA84200DDBF
:100C60007D1CB81B00F1010A4FF0004720780007F7
:100C700003D4AA4501DB4FF0FF3A0021B7F1004F42
:100C80000DF143088DF8431024D002202B23002FB0
:100C900001DA7F422D230A21021EA0F1010000DCAF
:100CA0005FB197FBF1FC97FBF1F201FB1C7C17464F
:100CB0000CF1300C08F801CDEEE7A8F1010003704B
:100CC0002188090501D5452100E06521A0F1010831
:100CD00000F8011C09980FA9A1EB0807FF1D00B13E
:100CE0000120411901EBEA70A1693844081A401E3D
:100CF000A0612078C00602D42046FFF7E3FA0998E5
:100D000028B1D4E901219047206A401C2062207854
:100D1000C00622D52046FFF7D5FA1EE0002E04DBE0
:100D2000B34502DD01A8805D00E03020D4E9012157
:100D30009047206A401C2062761CAAF101005FEAFD
:100D4000000A0AD100F020FAC0680168405CD4E9CA
:100D500001219047206A401C2062281EA5F1010550
:100D6000DCDC07E0D4E9012118F8010B9047206A88
:100D7000401C2062381EA7F10107F3DC2046FFF774
:100D8000B7FA032011B041E62DE9F04F04460D46B5
:100D9000D21D22F0070089B0D0E9009748463946B5
:100DA00002F09EFF0246F80F01D02D2307E02068D5
:100DB000810701D52B2302E0202101EAC0038DF831
:100DC00020300BB1012000E00020032A824601D030
:100DD000072A04DB2946204600F0DAF93FE12078B3
:100DE000800601D40D2500E0E569C7F30A560D2DF4
:100DF00049DA00214FEA175B08464FF00000002F48
:100E000000F4400007DA00EB80004FF4400100EBF3
:100E1000D07001EA60008115012901DD4FF0FF313A
:100E200000224FEA850CBCF1180F06D31346ACF133
:100E300018004FF08052C24003E04FF4801323FAB1
:100E40000CF30CF10C0CBCF1200F04D3ACF1200C12
:100E500009FA0CF001E007FA0CF000294FF0004805
:100E600001DD18B90FE00ED140450CD319EB020992
:100E70005F4121B9404502D19F4329EA0209BBEBFA
:100E8000175F00D0761C2088000502D57B48784487
:100E900002E07A487844193808AA302302F80A3068
:100EA000037C0AF10101002E0AF1020A53546A463A
:100EB00002DC4FF0300101E04FF031014FF001084A
:100EC0008DF8001002D0A6F2FF3603E059EA470180
:100ED00000D06B4E002D02DC2178090704D54FF0BD
:100EE00002082E218DF80110C44600210BE0C7F343
:100EF00003433F01C35C491C6D1E02F808300529FD
:100F000008F1010801DA002DF1DC00210CE000EB12
:100F10001973491C1B786D1E082902F808304FEA26
:100F2000091908F1010801DA002DF0DC21688B06AF
:100F300002D516E0A8F10108E04505DD02EB080343
:100F400013F8013C302BF5D0B8F1000F09DD02EBAE
:100F5000080313F8013C2E2B03D1090701D4A8F193
:100F60000108002D05DD3E2102F808106D1E08F174
:100F70000108407C002E02F8080008F1010804DA9C
:100F80002D20764202F8080002E02B2002F808002B
:100F90000A214FF47A70864208F101080BDB96FBB8
:100FA000F0F3303302F8083096FBF0F308F1010853
:100FB00000FB136601E0642E0CDB642096FBF0F36B
:100FC000303302F8083096FBF0F308F1010800FB1B
:100FD000136601E00A2E06DB96FBF1F0303002F8D2
:100FE000080008F1010896FBF1F001FB10603030B9
:100FF00002F80800A16908F1010808EB050202EBFC
:101000000A00081AA0612078C00602D42046FFF723
:1010100059F9216A08AE01EB0A00206204E0D4E924
:10102000012116F8010B9047BAF1010AF7D2207896
:10103000C00602D52046FFF745F96E4609E016F8CE
:10104000010B3E280FD0D4E901219047206A401CB3
:101050002062B8F10108F2D22046FFF749F909B041
:101060000320BDE8F08F206A2844206203E0D4E921
:101070000121302090476D1EEBD3F8E7C94C0000EA
:1010800002FCFFFF10B5436913B1AFF3008001E02C
:10109000FFF751F9012010BD127800F124010A7008
:1010A00000224A700122EDE711684FF0FF32E9E7B4
:1010B00010B5436913B1AFF3008001E0FFF7D2F937
:1010C000012010BD128800F1240182840022C28414
:1010D0000122EDE711684FF0FF32E9E72DE9F04119
:1010E00016460C46054600F047F8036893F80101E0
:1010F000012807D0FF2C12D8185D80B101202C7078
:10110000BDE8F081D3F807013246214603F2071308
:10111000C7182846BC46BDE8F041002360474FF0A1
:10112000FF30EDE700487047800000207546FFF76C
:10113000F9FFAE4605006946534620F00700854694
:1011400018B020B5FFF784F8BDE820404FF0000646
:101150004FF000074FF000084FF0000BAC46ACE832
:10116000C009ACE8C009ACE8C009ACE8C00921F08E
:1011700007018D467047000010B500F005F8001D0E
:1011800010BD00BFE536000000487047A0000020F9
:101190002DE9F0411F46044603260168072A01F4A1
:1011A000006004DB08B116A505E016A503E008B150
:1011B00015A500E015A521F010002060A069C01E53
:1011C000A0610FB1401EA0612046FFF77BF84FB130
:1011D000D4E9012138469047206A401C2062C01C97
:1011E000206206E0206AFAE7D4E9012115F8010B34
:1011F0009047761EF8D22046FFF77AF8BDE8F081D6
:101200004E414E006E616E00494E4600696E6600AA
:101210002DE9F047814616468AB0354878440DC816
:101220008DE80D0032487844801C03AC0DC884E87A
:101230000D0041F69B300844372190FBF1F290FB02
:10124000F1F5A5F1800501FB12041B3C02D56442B7
:10125000012000E00020DFF898A080460027FA4433
:10126000AAF1BE0A0EE0E0070AD03246684607EB54
:10127000470101230AEB810102F0FBFB8DE8070027
:1012800064107F1C002CEED1194F7F44AE3F19E053
:10129000E80715D007EB04100DF1180A90E80E00CE
:1012A0008AE80E00C068F04201D1981908903246D1
:1012B000012306A903A802F0DCFB03AB83E80700C7
:1012C0006D10641C002DE3D14FF0010332466946D6
:1012D000B8F1000F03A802D002F0B6FB01E002F063
:1012E000C8FBC9E90001C9F808200AB0BDE8F087C9
:1012F000CC49000010B50446AFF300802046BDE89D
:101300001040FEF790BF00004FF0013C50F8042B56
:1013100051F8043B9A4221D1A2EB0C03934313EA08
:10132000CC1317D150F8042B51F8043B9A4215D135
:10133000A2EB0C03934313EACC130BD150F8042B0C
:1013400051F8043B9A4209D1A2EB0C03934313EAF0
:10135000CC13DBD04FF00000704700BFD01A01BAA9
:10136000B1FA81F101F0180122FA01F0CB40DBB2B1
:10137000C0B2C01AC1F120012CFA01F3D11A914375
:1013800011EAC311E6D1704701491820ABBEFEE750
:10139000260002007047000080B542F20040C4F20F
:1013A00001000068800700282CD5FFE742F23C408E
:1013B000C4F2010000686FF31F3003F0CAFC40F66E
:1013C0000002C6F2206246F26663C3F64A7303F077
:1013D0000FFD03F05FFA014641F2A010C2F20000D7
:1013E000016000680021C4F2C82104F081F90021E5
:1013F000CCF2482104F03CF841F29411C2F2000111
:101400000860FFE742F20041C4F2010100200860D9
:1014100080BD000080B541F21801C4F202010868E5
:1014200040F00400086040F60002C4F201021068B7
:1014300020F0C000106041F20402C4F20202106801
:101440001060086840F40070086042F20841C4F27D
:101450000101086840F004000860FFE742F208401C
:10146000C4F2010000684007002801D4FFE7F5E757
:10147000122001F0A9FC42F21041C4F2010108203F
:1014800008602020086042F20441C4F201010860B3
:1014900042F20841C4F20101086820F4E04008600B
:1014A000086840F400500860086840F001000860D7
:1014B000086840F40040086042F23841C4F201017B
:1014C000086820F440100860086820F4782008605C
:1014D000086840F40040086080BD00006C21C4F240
:1014E0000201086820F001000860FFE745F214409F
:1014F000C4F20000008808B9FFE7F7E745F20041B1
:10150000C4F20001088840F4007008800421C4F28D
:101510000201086840F48010086070478021C4F21E
:101520000201086820F00100086045F20041C4F2A1
:101530000001088840F4007008800421C4F2020110
:10154000086840F0807008607047000080B582B085
:1015500041F21401C4F20201086840F00100086081
:101560006C21C4F20201086840F08000086008683D
:1015700040F0100008607422C4F2020245F21040EC
:10158000C4F2000001901060086840F0020008609A
:10159000102001F001FC01988021C4F202010A68C8
:1015A00042F080020A608822C4F2020210600868D9
:1015B00040F002000860112001F0EEFB02B080BD97
:1015C00082B00190009101987821C4F20201086074
:1015D00000987021C4F2020108606C21C4F202017B
:1015E000086840F00100086002B0704782B00190C6
:1015F00000915821C4F20201086820F0010008603F
:1016000001986422C4F20202106000985C22C4F2C5
:1016100002021060086840F00100086002B07047E4
:1016200081B00090009840F20001C2F20001096808
:101630004DF68362C4F21B32A1FB0221890C4843A0
:101640004EF21401CEF2000108604EF21801CEF203
:1016500000010A2008604EF21001CEF20001086875
:1016600040F007000860FFE74EF21000CEF20000E5
:101670000068C003002801D4FFE7F5E74EF210012F
:10168000CEF20001086820F00110086001B0704738
:1016900081B00090009840F20001C2F20001096898
:1016A0004DF68362C4F21B32A1FB0221890C484330
:1016B0004EF21401CEF2000108604EF21801CEF293
:1016C00000010A2008604EF21001CEF20001086805
:1016D00040F007000860FFE74EF21000CEF2000075
:1016E0000068C003002801D4FFE7F5E74EF21001BF
:1016F000CEF20001086820F00110086001B07047C8
:1017000040F21441C4F20101086840F0080008608A
:1017100041F2A411C2F20001087880F001000870C3
:101720007047000080B50821C4F201010868086014
:1017300040F20041C4F20101086840F0080008606E
:1017400040F20C41C4F20101086840F00800086052
:10175000092001F009FB80BD80B582B00190FFE750
:1017600001F052FC08B9FFE7FAE742F21001C4F2B7
:101770000201086840F002000860019842F2140279
:10178000C4F202021060086840F040000860FFE701
:1017900001F03AFC08B9FFE7FAE742F21001C4F29F
:1017A0000201086820F00200086001F08FFB02B01F
:1017B00080BD000042F21001C4F20201086840F04E
:1017C000800008607047000080B582B001900091F1
:1017D000FFE701F019FC08B9FFE7FAE742F2100150
:1017E000C4F20201086840F0010008600098019905
:1017F0000880FFE701F008FC08B9FFE7FAE7019865
:1018000002300190BDF80200009000980199088014
:10181000FFE701F0F9FB08B9FFE7FAE742F2100130
:10182000C4F20201086820F00100086002B080BD27
:1018300042F20401C4F2020140F22310C4F26750E4
:10184000086048F6AB10CCF6EF5008607047000017
:1018500041F2A810C2F200000068704745F214403F
:10186000C4F200000088B8B1FFE745F20041C4F2BD
:101870000001088840F4007008806C21C4F2020165
:10188000086820F0010008608021C4F202010868A5
:1018900020F001000860FFE77047000080B541F2CA
:1018A0001C01C4F20201086840F40010086041F213
:1018B0000401C4F20201086840F48060086041F24B
:1018C0001801C4F20201086840F00800086040F600
:1018D0000041C4F20101086840F0406008600868F7
:1018E00040F040700860086840F0404008600868B8
:1018F00040F04050086045F20441C4F200010888FD
:1019000040F480500880088840F40060088045F268
:101910001C41C4F20001088840F00A00088045F22A
:101920002041C4F2000108200880202001F034FA90
:1019300045F20041C4F20001088840F0010008802F
:1019400080BD000085B001200490FFE70498B0F549
:10195000806F0CDCFFE7049A40F66051C2F2000190
:1019600000208854FFE7049801300490EEE701203E
:101970000390FFE70398032870DCFFE703996FF0FB
:101980007F0000EB012041F2B011C2F200010860BB
:1019900000200290FFE70298072818DCFFE7029971
:1019A00040F20C00C2F20000405C41F2B011C2F201
:1019B00000010B6840F66052C2F20002D054086881
:1019C00001300860FFE7029801300290E3E7002051
:1019D0000190FFE7019807281CDCFFE7039940F21C
:1019E0001400C2F2000000EBC10001990844007E1F
:1019F00041F2B011C2F200010B6840F66052C2F22F
:101A00000002D054086801300860FFE701980130F7
:101A10000190DFE700200090FFE70098072818DC1E
:101A2000FFE7009940F20400C2F20000405C41F27E
:101A3000B011C2F200010B6840F66052C2F200021F
:101A4000D054086801300860FFE70098013000902A
:101A5000E3E7FFE70398013003908BE705B0704799
:101A60008AB001200990FFE70998032800F3A680B7
:101A7000FFE709996FF07F0000EB012041F2B01100
:101A8000C2F20001086000200890FFE708980728CC
:101A900018DCFFE7089940F20C00C2F20000405C3D
:101AA00041F2B011C2F200010B6840F66052C2F27E
:101AB0000002D054086801300860FFE70898013040
:101AC0000890E3E700200790FFE7079807281CDC51
:101AD000FFE7099940F21400C2F2000000EBC100D8
:101AE00007990844007E41F2B011C2F200010B6870
:101AF00040F66052C2F20002D0540868013008601B
:101B0000FFE7079801300790DFE741F2B011C2F21A
:101B100000010B6840F66052C2F20002FF20D05470
:101B200008680130086000200690FFE706986428E6
:101B300034DCFFE7069849F69811C1F699114CF686
:101B4000CD42CCF6CC4200FB02104FEA7000884236
:101B50000CD8FFE741F2B010C2F20000026840F674
:101B60006051C2F20001C32088540BE041F2B01072
:101B7000C2F20000026840F66051C2F2000181200A
:101B80008854FFE741F2B011C2F200010868013049
:101B90000860FFE7069801300690C7E741F2B010F1
:101BA000C2F20000026840F66051C2F20001FF205C
:101BB0008854FFE709980130099055E741F2B011C8
:101BC000C2F200014FF4447008600B6840F66052A6
:101BD000C2F200025520D05440F276330B600B68FD
:101BE000D05440F243330B600B68D0544FF4607014
:101BF000086000200590FFE7059807281ADCFFE73A
:101C0000059940F21400C2F20000084490F8280040
:101C100041F2B011C2F200010B6840F66052C2F20C
:101C20000002D054086801300860FFE705980130D1
:101C30000590E1E700200490FFE70498072819DCED
:101C4000FFE7049940F21400C2F200000844007E4D
:101C500041F2B011C2F200010B6840F66052C2F2CC
:101C60000002D054086801300860FFE70498013092
:101C70000490E2E741F2B011C2F2000140F2B33049
:101C8000086000200390FFE7039807281ADCFFE7AD
:101C9000039940F21400C2F20000084490F83000AA
:101CA00041F2B011C2F200010B6840F66052C2F27C
:101CB0000002D054086801300860FFE70398013043
:101CC0000390E1E700200290FFE70298072819DC63
:101CD000FFE7029940F21400C2F200000844007EBF
:101CE00041F2B011C2F200010B6840F66052C2F23C
:101CF0000002D054086801300860FFE70298013004
:101D00000290E2E741F2B011C2F2000140F2E73086
:101D1000086000200190FFE7019807281ADCFFE720
:101D2000019940F21400C2F20000084490F8380013
:101D300041F2B011C2F200010B6840F66052C2F2EB
:101D40000002D054086801300860FFE701980130B4
:101D50000190E1E700200090FFE70098072819DCD8
:101D6000FFE7009940F21400C2F200000844007E30
:101D700041F2B011C2F200010B6840F66052C2F2AB
:101D80000002D054086801300860FFE70098013075
:101D90000090E2E70AB0704742F61800C4F2000073
:101DA000018842F61C00C4F20000008840EA0140AD
:101DB0007047000080B584B041F22000C4F20200F8
:101DC000006800F40040B0F5004F7DD0FFE741F21D
:101DD0001C01C4F20201086840F0C050086047F2DC
:101DE0000001C4F20001086840F48070086041F20C
:101DF0002001C4F202010091086840F480300860BC
:101E0000086820F480300860086840F401400860E9
:101E1000086840F001000860FFE741F22000C4F2CA
:101E200002000068C00708B9FFE7F6E746F62C4154
:101E3000C4F20001088840F003000880FFE742F682
:101E40000400C4F2000000888006002801D4FFE7E7
:101E5000F5E742F60401C4F20001088840F01000E2
:101E6000088042F60C02C4F2000247F6FF701080B0
:101E7000088820F010000880FFE742F60400C4F252
:101E8000000000888006002801D4FFE7F5E742F64D
:101E90000401C4F20001088820F008000880FFE770
:101EA00042F60400C4F20000008800F00800082890
:101EB00001D0FFE7F4E747F20001C4F2000108682F
:101EC00020F480700860FFE740F2E67001900B207C
:101ED0008DF8080017208DF809008DF80A000620FB
:101EE0008DF80B001E208DF80C0001208DF80D00E0
:101EF00001A800F081FF40F27C01C2F200010860FD
:101F000004B080BD81B0009041F21C01C4F2020116
:101F1000086840F0C050086047F20001C4F20001B8
:101F2000086840F480700860FFE742F60400C4F2DD
:101F3000000000888006002801D4FFE7F5E742F69C
:101F40000401C4F20001088840F010000880BDF8C8
:101F5000020042F61802C4F200021080009842F615
:101F60001C02C4F200021080088820F010000880D3
:101F7000FFE742F60400C4F2000000888006002853
:101F800001D4FFE7F5E747F20001C4F20001086859
:101F900020F48070086001B07047000080B58AB0FE
:101FA000ADF826000891079240F60C41C4F20101F9
:101FB0000491086820F0200008604FF47A700590C2
:101FC000FFF72EFB03208DF81B000DF11B00029084
:101FD0000121019140F64052C0F20302039200F049
:101FE00067F80199039A02989DF827308DF81B3005
:101FF00000F05EF80199039A0298BDF826308DF83A
:102000001B3000F055F8039B0899079A084600F02A
:10201000ABF8049A0598116841F020011160FFF7B0
:10202000FFFA0AB080BD000081B041F21801C4F28D
:102030000201086840F001000860086840F00C00E8
:10204000086040F60042C4F20102106820F47000FB
:102050001060106840F48010106040F60002C4F276
:10206000010210684FF6FF73C3F23F33184010604F
:1020700010680023CBF2B04318431060086840F4A6
:102080008050086043F20001C4F20101088800F4A6
:1020900051700880088840F06400088043F2040111
:1020A000C4F20101088820F0FF00088001B07047E9
:1020B00080B586B004900391029203980090FFF7D8
:1020C000C7FB019043F20000C4F20100008800F059
:1020D0004000402809D0FFE743F20001C4F20101AB
:1020E000088840F040000880FFE7FFE7009828B329
:1020F000FFE743F20800C4F20100008880070028CF
:102100000ED5FFE70498007843F20C01C4F20101F8
:1021100008800498013004900098013800900CE089
:10212000FFF796FB0199401A0299884204D9FFE70C
:1021300001208DF8170012E0FFE7D7E7FFE743F231
:102140000800C4F2010000880006002801D5FFE75E
:10215000F5E743F20C00C4F201000088FFE79DF8A8
:10216000170006B080BD000080B58CB00A900991C0
:10217000089207930898069006980590012004900D
:1021800000200390FFF764FB0290FFE7069901200F
:10219000019031B9FFE70598002818BF0120019090
:1021A000FFE70198C007002849D0FFE70498E0B195
:1021B000FFE743F20800C4F201000088800700280E
:1021C00013D5FFE7069880B1FFE70A98007843F23D
:1021D0000C01C4F2010108800A9801300A900698A7
:1021E0000138069000200490FFE743F20800C4F293
:1021F00001000088C00798B1FFE7059880B1FFE7AC
:1022000043F20C00C4F20100008809990870099893
:102210000130099005980138059001200490FFE7EE
:10222000FFF716FB039003980299401A079988421A
:1022300004D9FFE701208DF82F0000E0A6E79DF804
:102240002F000CB080BD000080B584B0AE2000F03F
:1022500085F8D52000F082F8802000F07FF88D20EE
:1022600000F07CF8142000F079F8402000F076F8B7
:10227000A12000F073F8C82000F070F8DA2000F018
:102280006DF8122000F06AF8A82000F067F83F20EF
:1022900000F064F8D32000F061F80020019000F015
:1022A0005DF8202000F05AF8019800F057F821203E
:1022B00000F054F8019800F051F87F20009000F0F1
:1022C0004DF8222000F04AF8019800F047F8072066
:1022D00000F044F8812000F041F8009800F03EF84A
:1022E000A42000F03BF8A62000F038F8AF2000F062
:1022F00035F801980290FFE70298B0F5806F0CDC8A
:10230000FFE7029A40F66051C2F2000100208854B3
:10231000FFE7029801300290EEE740F66051C2F20A
:10232000000140200870FFF70DFBFFE745F2184061
:10233000C4F2000000888007002801D5FFE7F5E718
:10234000782000F027F940F66050C2F2000040F219
:102350000141FFF735F9039804B080BD80B582B024
:102360008DF80300FFE745F21840C4F20000008832
:102370008007002801D5FFE7F5E7782000F00AF98B
:1023800040F66050C2F20000002101709DF8031079
:1023900041700221FFF714F9019802B080BD0000DE
:1023A00080B582B0FFF7CEFA41F29810C2F2000079
:1023B000006803F031F88A2200F0B0FD41F2941079
:1023C000C2F20000006803F027F84FF4C57200F075
:1023D000A5FD41F29C10C2F20000006803F01CF859
:1023E00040F28A2200F09AFD00200190FFE745F2BA
:1023F0001840C4F200000088800700280AD5FFE7D3
:102400000198411C019142F21071884201D1FFE70D
:102410000CE0ECE7782000F0BDF840F66050C2F226
:10242000000040F20141FFF7CBF8FFE700BF02B028
:1024300080BD000080B588B0FFF712FB41F2B011FB
:10244000C2F200019220086000200790FFE7079881
:10245000039041F29810C2F20000006800F03CFEC8
:1024600001460398884215DAFFE741F2B011C2F243
:1024700000010B6840F66052C2F20002D05C40F0EE
:10248000BD00D054086801300860FFE707980130AC
:102490000790DCE741F2B011C2F200014FF4C970BD
:1024A000086000200690FFE70698029041F2941021
:1024B000C2F20000006800F00FFE01460298884258
:1024C00015DAFFE741F2B011C2F200010B6840F6E5
:1024D0006052C2F20002D05C40F0BD00D0540868E7
:1024E00001300860FFE7069801300690DCE741F212
:1024F000B011C2F2000140F2922008600020059065
:10250000FFE70598019041F29C10C2F200000068BC
:1025100000F0E2FD01460198884215DAFFE741F23A
:10252000B011C2F200010B6840F66052C2F2000224
:10253000D05C40F0BD00D054086801300860FFE76F
:10254000059801300590DCE700200490FFE745F294
:102550001840C4F200000088800700280AD5FFE771
:102560000498411C049142F21071884201D1FFE7A6
:102570000CE0ECE7782000F00DF840F66050C2F275
:10258000000040F20141FFF71BF8FFE700BF08B071
:1025900080BD000080B582B08DF8070045F2004193
:1025A000C4F20001088840F480700880FFE745F21B
:1025B0001440C4F200000088C00708B9FFE7F6E73E
:1025C0000A20FFF765F845F21440C4F200000088C5
:1025D0009DF8070045F21041C4F200010880FFE7B2
:1025E00045F21440C4F2000000888007002801D49E
:1025F000FFE7F5E745F21440C4F20000008845F219
:102600001840C4F20000008802B080BD80B500F020
:1026100001F880BD84B000200390029041F20001D7
:10262000C4F20201086840F480300860FFE741F21C
:102630000000C4F20200006800F400300290039829
:1026400001300390FFE702990020019039B9FFE7BC
:102650000398B0F5A06018BF01200190FFE7019832
:10266000C0070028E3D1FFE741F20000C4F20200F6
:1026700000688003002803D5FFE70120029002E0F4
:1026800000200290FFE70298012851D1FFE742F2B3
:102690000001C4F20201086840F0100008600868F8
:1026A00020F003000860086840F00200086041F272
:1026B0000401C4F20201009108680860086808601B
:1026C000086840F480600860086820F47C100860A6
:1026D000086840F4E810086041F20001C4F2020109
:1026E000086840F080700860FFE741F20000C4F223
:1026F000020000688001002801D4FFE7F5E741F2FD
:102700000401C4F20201086820F0030008600868B0
:1027100040F002000860FFE741F20400C4F202004A
:10272000006800F00C00082801D0FFE7F4E700E0A3
:10273000FFE704B07047000041F2A811C2F20001A7
:10274000086801300860704741F20001C4F20201DC
:10275000086840F001000860FFE741F20000C4F2A1
:10276000020000688007002801D4FFE7F5E741F286
:102770000401C4F2020100200860FFE741F20400F6
:10278000C4F20200006810F00C0F01D0FFE7F5E77B
:1027900041F20001C4F20201086820F08070086074
:1027A00041F20402C4F20202106820F47C101060AE
:1027B000106840F4A0101060086840F08070086055
:1027C000FFE741F20000C4F2020000688001002827
:1027D00002D4FFE700BFF4E741F20401C4F20201B2
:1027E000086820F003000860086840F002000860F4
:1027F000FFE741F20400C4F20200006800F00C00A0
:10280000082801D0FFE7F4E77047000084B00020FB
:1028100003900290019041F20400C4F202000068AB
:1028200000F00C0003900398009040B1FFE700987F
:1028300004280ED0FFE70098082814D056E040F294
:102840000001C2F2000141F20020C0F27A000860EB
:1028500056E040F20001C2F2000141F20020C0F255
:102860007A0008604CE041F20400C4F20200016802
:1028700001F470110291006800F480300190029917
:10288000022000EB91400290019860B9FFE70298A6
:1028900040F60011C0F23D01484340F20001C2F28F
:1028A0000001086021E041F20400C4F20200006867
:1028B000800300280CD5FFE7029840F60011C0F213
:1028C0003D01484340F20001C2F2000108600BE004
:1028D000029841F20021C0F27A01484340F200011F
:1028E000C2F200010860FFE7FFE709E040F20001E3
:1028F000C2F2000141F20020C0F27A000860FFE756
:1029000041F20400C4F202000068C0B2010945F6B9
:102910000440C0F60000405C0390039A40F20001BE
:10292000C2F200010868D040086004B0704700009F
:1029300080B541F20002C4F20202106840F00100CA
:10294000106041F20401C4F2020108680023CFF6CE
:10295000FF031840086010684FF6FF73CFF6F66368
:1029600018401060106820F480201060086820F47F
:10297000FE00086041F20801C4F202014FF41F009A
:102980000860FFF743FE4EF60851CEF200014FF00B
:102990000060086080BD000041F21C01C4F2020129
:1029A000086840F0010008604FF080410120088075
:1029B00040F20000C2F20000006841F25971CDF20D
:1029C000B711A0FB01014FF0FF3000EB513028217F
:1029D000C4F2000108802C21C4F200014FF4FA6017
:1029E00008800421C4F20001088840F0200008801B
:1029F0007047000080B584B040F61001C4F20001B9
:102A0000088820F00100088000F07EFA00F0CEFB7C
:102A1000FFF7C2F941F2BC11C2F2000100F0CAFC9A
:102A200041F2AC10C2F200000068C62811DBFFE7DB
:102A300041F2AC11C2F2000100200860FEF7F8FE7E
:102A40004FF60040C0F60100FEF786FEFEF7B2FE2C
:102A5000FFE741F2BC11C2F200010A7A41F2B41060
:102A6000C2F200000270CA7942708A798270497994
:102A7000C170006841F2AC1CC2F2000CCDF808C075
:102A8000DCF80020511CCCF8001040F22071C2F29A
:102A9000000141F8220041F29810C2F200000068E3
:102AA000DCF80020531CCCF8003041F8220041F241
:102AB0009410C2F200000068DCF80020531CCCF82F
:102AC000003041F8220041F29C10C2F20000006880
:102AD000DCF80020531CCCF8003041F82200FEF74F
:102AE000A7FE00200390FFE70398032838DCFFE7E8
:102AF00041F2AC10C2F2000001900168039A0A444E
:102B000040F22071C2F20001009101EB820151F804
:102B1000102C41F2B811C2F200010A600068039A59
:102B200002444FF6F030C0F6010000EB8200096865
:102B3000FEF74AFE009901980068039A02446FF07C
:102B40000F0000EB82000144042200F095F841F2EE
:102B50008830FEF79DFDFFE7039801300390C3E73F
:102B6000FEF728FE41F2A410C2F20000007801280E
:102B700003D1FFE7FFF75EFC02E0FFF711FCFFE780
:102B800004B080BD80B541F21C01C4F202010868A6
:102B900040F00400086040F60001C4F2000101208A
:102BA000088040F20000C2F20000006841F2597152
:102BB000CDF2B711A0FB01014FF0FF3000EB513017
:102BC00040F62801C4F20001088040F62C01C4F24E
:102BD00000014FF49670088040F60C01C4F2000129
:102BE000088840F0010008801E2000F0D5F880BD64
:102BF00080B582B041F26110C2F200000078312845
:102C00000AD1FFE740F2E001C2F2000100204FF4D8
:102C10009662FFF7C3F91CE000200190FFE70198DE
:102C2000B0F5C87F14DAFFE7019840F22071C2F2D4
:102C3000000101EB80018000042200F01DF841F248
:102C40008830FEF725FDFFE7019801300190E6E7A7
:102C5000FFE743F60000C4F20100008843F60400D9
:102C6000C4F20100008841F26110C2F2000032217A
:102C7000FEF7BCFC02B080BD80B588B0ADF81E0088
:102C8000069105920120009000F03EF840F60C41BC
:102C9000C4F201010391086820F0200008604FF49D
:102CA0007A70FEF7BDFC009902208DF813000DF13B
:102CB0001300019040F64052C0F203020292FFF767
:102CC000F7F90099029A01989DF81F308DF813309A
:102CD000FFF7EEF90099029A0198BDF81E308DF8C1
:102CE0001330FFF7E5F9029A06980599FFF7E0F926
:102CF0004FF47A60FEF794FC0399086840F02000D6
:102D0000086008B080BD000080B582B08DF8070073
:102D100000208DF8060040F60C41C4F2010108685D
:102D200020F0200008609DF80700012804D1FFE78B
:102D300006208DF8060003E004208DF80600FFE76A
:102D40000DF10600012140F64052C0F20302FFF7E8
:102D5000AFF940F60C41C4F20101086840F02000D0
:102D6000086002B080BD000081B08DF803009DF9BD
:102D7000030000280ED4FFE79DF9031001F01F02A5
:102D8000012090404A094EF20011CEF2000141F8B4
:102D90002200FFE701B0704781B08DF803009DF974
:102DA000030000280ED4FFE79DF9031001F01F0275
:102DB000012090404A094EF20011CEF2000141F884
:102DC0002200FFE701B0704781B08DF803009DF944
:102DD000030000280ED4FFE79DF9031001F01F0245
:102DE000012090404A094EF20011CEF2000141F854
:102DF0002200FFE701B0704786B005900598007982
:102E0000C0F10E004AF6AB21C2F6AA2180FB0101F7
:102E1000480800EBD1708DF81300059800689DF804
:102E20001310401A00F596500390059800799DF80C
:102E3000131001EB410100EB810003388DF80B000A
:102E4000059840799DF80B109922514302314CF6B8
:102E5000CD42CCF6CC42A1FB022100EB91020399BA
:102E600040F26D1001FB0020CA1701EB927200EBDB
:102E7000A20048F21F52C5F2EB1281FB021251115F
:102E800001EBD271401AD11101EBD271084444F226
:102E90004751CFF6DA7108440190019845F280114C
:102EA000C0F201014843009005998879CA79097AEE
:102EB000C2EB021201EB82024FF4616100FB0121BF
:102EC000009808440090009806B0704781B042F224
:102ED0000C00C4F202000068800600280CD5FFE751
:102EE00042F20C01C4F20201086840F020000860C0
:102EF00001208DF8030003E000208DF80300FFE7B8
:102F00009DF8030001B0704780B500F085F8CC2033
:102F100000F00CFA442000F009FA80BD80B588B0BA
:102F2000079106900592059841F2B011C2F2000196
:102F300000910860069A079B45F61441C0F600010F
:102F40000DF10E00FDF796F9009908681030086041
:102F500000200290FFE7029805282FDCFFE7002001
:102F60000190FFE70198072823DCFFE702990DF1A4
:102F70000E00415C40F21400C2F2000000EBC10000
:102F8000019908444FF69861CFF6FF71405C41F219
:102F9000B011C2F200010B6840F66052C2F20002AA
:102FA000D054086801300860FFE7019801300190B3
:102FB000D8E7FFE7029801300290CCE708B080BD67
:102FC00041F21801C4F20201086840F004000860F0
:102FD00040F61001C4F201014FF48030086040F661
:102FE0000001C4F20101086820F0030008600868CD
:102FF00040F002000860086820F00C0008600868D3
:1030000040F004000860704742F20C00C4F2020075
:10301000016801208843704780B582B040F61001F6
:10302000C4F201010091086840F48030086040F269
:103030008A20FEF72DFB0099086840F00100086027
:103040006420FEF725FB40F60800C4F2010000688A
:10305000C00720B1FFE700208DF8070007E04FF41C
:10306000FA60FEF715FB01208DF80700FFE79DF8D9
:10307000070002B080BD000080B582B00020019042
:10308000FFF762FBFFF7C2FBFEF794FE40F27C0005
:10309000C2F200000068FEF735FFFEF7C9FB4FF6ED
:1030A0000040C0F60100FEF757FBFEF783FBFEF77A
:1030B00039FBFEF7F3FBFEF749FAFFF7C5F8FEF719
:1030C000A9F9FFF769FCFFF77BFFFFF75BFDFEF750
:1030D000ABFFFFE7FEE7000080B584B002900298E6
:1030E0000021C4F2C821009102F002FB0021C4F2C9
:1030F000A01102F01FFA009902F0C6FB02F0DCFA00
:1031000001900198652803DBFFE7642003900AE043
:103110000198B0F1FF3F03DCFFE70020039002E0DD
:1031200001980390FFE7039804B080BD80B582B09A
:1031300000208DF807008DF80600FFE79DF80600D7
:10314000411C8DF8061007282BDCFFE79DF80700CF
:1031500040088DF8070040F61001C4F2010100910B
:10316000086840F4803008600220FEF791FA009968
:10317000086840F0010008600120FEF789FA40F677
:103180000800C4F201000068C00730B1FFE79DF8F5
:10319000070080308DF80700FFE74620FEF778FA39
:1031A000CCE79DF8070002B080BD000080B58CB070
:1031B000FFF732FFCC2000F0B9F8BE2000F0B6F8DF
:1031C00041F29C11C2F20001002008608DF82F002E
:1031D0008DF82E008DF82D006FF004000A90FFF797
:1031E000A5FF8DF82F00FFF7A1FF8DF82E00FFE758
:1031F0009DF82D00411C8DF82D1007285CDCFFE7A1
:103200000A9801300A909DF82F00C00700284DD081
:10321000FFE70A98B0F1FF3F28DCFFE70A98FDF7C7
:103220003FF801F07FFD02460B46002006904FF06C
:10323000804100F0E7FD024606980B460021C3F6E8
:10324000F07101F015FC0790089141F29C10C2F258
:1032500000000990006802F0DFF8079A089B01F06F
:103260004BFB01F017FB099908601EE00A98FDF777
:1032700017F801F057FD02460B4600204FF0804141
:1032800000F0C0FD0390049141F29C10C2F20000D6
:103290000590006802F0C0F8039A049B01F02CFB33
:1032A00001F0F8FA05990860FFE7FFE79DF82F00A5
:1032B00040088DF82F009BE700208DF82D00FFE7D8
:1032C0009DF82D00411C8DF82D1002282BDCFFE706
:1032D0000A9801300A909DF82E00C007E8B1FFE778
:1032E0000A9801F01FFD02460B4600204FF0804176
:1032F00000F088FD0090019141F29C10C2F20000A4
:103300000290006802F088F8009A019B01F0F4FA3C
:1033100001F0C0FA02990860FFE79DF82E0040080E
:103320008DF82E00CCE70CB080BD000080B582B0D7
:103330008DF8070000208DF80600FFE79DF80600D5
:10334000411C8DF80610072831DCFFE740F610011C
:10335000C4F20101086840F4803008600520FEF7DF
:1033600097F99DF80700C00760B1FFE740F610012C
:10337000C4F20101086840F0010008604620FEF731
:1033800087F90BE04620FEF783F940F61001C4F2FE
:103390000101086840F001000860FFE70920FEF71E
:1033A00077F99DF8070040088DF80700C6E702B0DE
:1033B00080BD000085B004900391049844F2075149
:1033C000CCF22E21A0FB0132120C40F2A3235A436F
:1033D000A0EBC210009004984AF6C0021044A0FB73
:1033E000010147F61730C0F24A0000EBD1300290DD
:1033F000029840080290029844F62511C2F29241C8
:10340000A0FB0121421A01EB52029108C900A1EB75
:103410009201401A03994872029847F62C510844C9
:10342000029002988000033040F2BD61C3F66B1138
:10343000A0FB0110C00B8DF8070002989DF8071043
:1034400043F6B122C0F202025143A0EB9100029078
:103450000298800003304BF27301C1F26D61A0FB52
:103460000110C0098DF8060002989DF8061040F280
:10347000B5525143A0EB91000290029800EB8000FE
:10348000023048F2D701CDF22B61A0FB0110C00938
:103490008DF8050002989DF80510992251430231DC
:1034A0004CF6CD42CCF6CC42A1FB0231A0EB910010
:1034B0000130039948719DF80500A0FB0231C9084D
:1034C00001EB4101A0EB81000330039908719DF8E5
:1034D00007009DF80630642100FB01309DF80510BF
:1034E000A1FB022100EBD100A0F5965003990860E2
:1034F00000994BF2C530C9F2A210A1FB0021C90A04
:10350000039A9171009BA3FB0021C90A4FF46162E9
:1035100001FB123348F68901C8F68801A3FB01C3F9
:103520005B09DDF80CC08CF80730009BA3FB00C0E2
:10353000C00A00FB1230A0FB011251090901A1EBE6
:103540005211A0EB81000399087205B070475FEA41
:10355000400C08BF91F0000F4FEA8C234FEAC122C4
:1035600043EA51514FEA1C5018BF00F5F0404FEAB2
:10357000300018BF41F000415FEA6C5C00F0298028
:10358000BCF1FF3F08BF40F080407047130C06BFFE
:1035900012044FF0100C4FF0000C130E04BF120277
:1035A0000CF1080C130F04BF12010CF1040C930F63
:1035B00004BF92000CF1020CD30F04BF52000CF1B7
:1035C000010C11464FF00002A0F11F00A0EB0C000F
:1035D000704711F0004F08BF704731F000413FF4D1
:1035E000D5AF0B0C06BF09044FF0100C4FF0000CC8
:1035F0000B0E04BF09020CF1080C0B0F04BF0901EC
:103600000CF1040C8B0F04BF89000CF1020CCB0FE2
:1036100004BF49000CF1010CCCF1200322FA03F3A2
:1036200041EA030102FA0CF2A0EB0C0000F10100E8
:103630007047000023F07F4720F07F4C80EA0300B2
:1036400000F00040ACEB070303F57C5303F1FF03EC
:103650002DE9804909B44FEA144324EA03484FEAAC
:10366000154B25EA0B4E0FF2042606EB13273E7886
:1036700003FB0667C7F5000707FB06F64FEAD646C9
:1036800006F102064FEA543707FB066CCCF1005CEA
:103690004FEA1C472CEA074C0CFB06F507FB06F427
:1036A00004EB15464FEA961649085FEA320234BF2A
:1036B00000204FF000404FEAD13706FB07FC4FEAED
:1036C0001C4C0CFB0BF7D21B03FB0CF761EB070147
:1036D0000CFB0EF7B0EB074072EB17420CFB08F740
:1036E00034BFA2EB0742B2EB074261EB17414FEA4E
:1036F0000C444FEA910706FB07FC4FEA1C4C0CFBFD
:103700000BF7B0EBC74072EB573203FB0CF734BF3B
:10371000A2EBC742B2EBC74261EB57310CFB0EF78D
:10372000B0EBC70072EB57720CFB08F734BFA2EB8B
:10373000C702B2EBC70261EB57714FEA816141EA00
:1037400092114FEA826242EA90124FEA806004EBE3
:10375000CC04039F4FEAD13706FB07FC4FEA1C4C11
:103760000CFB0BF7D21B03FB0CF761EB07010CFB07
:103770000EF7B0EB074072EB17420CFB08F734BFB3
:10378000A2EB0742B2EB074261EB17414FEA8C55BF
:1037900004EB9C244FEA910706FB07FC4FEA1C4C04
:1037A0000CFB0BF7B0EBC74072EB573203FB0CF787
:1037B00034BFA2EBC742B2EBC74261EB57310CFBFF
:1037C0000EF7B0EBC70072EB57720CFB08F734BF73
:1037D000A2EBC702B2EBC70261EB57714FEA8161FE
:1037E00041EA92114FEA826242EA90124FEA806007
:1037F00015EB4C2544F100044FEAD13706FB07FCDA
:103800004FEA1C4C0CFB0BF7D21B03FB0CF761EBD4
:1038100007010CFB0EF7B0EB074072EB17420CFBF5
:1038200008F734BFA2EB0742B2EB074261EB174146
:103830004FEA813141EA92414FEA823242EA9042B4
:103840004FEA80304FEA0C7615EB1C1544F100046A
:1038500048EA03434EEA0B484FF0000EB2EB080C67
:1038600071EB030724BF624639464EEB0E0E4FF054
:10387000000B0018524149414BEB0B0BB2EB080C0B
:1038800071EB03077BF1000B24BF624639464EEB18
:103890000E0E4FF0000B0018524149414BEB0B0B41
:1038A000B2EB080C71EB03077BF1000B24BF6246FF
:1038B00039464EEB0E0E51EA020718BF46F00106DC
:1038C00016EB0E7655F1000254F1000103D5BDE868
:1038D0008901BDE80088BDE88901BDE80048B61946
:1038E000524141EB0101A3F10103704780807F7ECB
:1038F0007D7C7B7A79787776767574737271717066
:103900006F6E6E6D6C6C6B6A6A6968686766666517
:103910006464636362616160605F5F5E5E5D5D5CA5
:103920005C5B5B5A5A595958585757565655555516
:103930005454535352525251515050504F4F4F4E76
:103940004E4D4D4D4C4C4C4B4B4B4A4A4A494949C4
:103950004848484747474746464645454544444406
:103960004443434343424242424141419C46002B2F
:1039700030D477002BD04FEA37071CB503B44FF093
:1039800010004FF01001BAF1000F06D0BCF1000F8B
:10399000DCBF40F0080040F008014FF000000FBC11
:1039A000BDE810400BF1010BBBF1010F08BF5FEA4E
:1039B000170722BF12F1010211F101014FF000417E
:1039C00043F1000300F0004043EA00007047F9D3E0
:1039D0005708D0E746EA06464FEA164613F1400F6D
:1039E0001FDD13F1200FDFBF16430A4600212033ED
:1039F0005B42BED0C3F1200746EA06464FEA1646B0
:103A000002FA07F746EA070622FA03F2C3F1200793
:103A100001FA07F742EA070221FA03F14FF0000327
:103A2000A7E746EA020646EA06464FEA164646EA8F
:103A30000106BCBF46EA0646360C4FF000034FF0C5
:103A400000024FF0000194E72DE9804C70B49A46D3
:103A5000934691E8380007C831EA400C48BF34EA81
:103A6000430C03D5FFF7E6FDFFF780FFF0BCBDE890
:103A7000008C2DE9804C70B49A46934691E838004A
:103A800007C810F0804F08BF13F0804F03D100F03B
:103A900005F8FFF76BFFF0BCBDE8008C20F07F4716
:103AA00023F07F4C80EA030000F0004007EB0C039A
:103AB000A3F57C53A3F1FE0392F0000F00F0B38056
:103AC00095F0000F00F077802DE901494FEA114091
:103AD00021EA00484FEA144624EA064700FB06FCA8
:103AE00008FB06F607FB08F818EB06484CEB164CEB
:103AF00000FB07F718EB07484CEB17404FEA124B57
:103B000022EA0B4E4FEA154625EA06470BFB06FC58
:103B10000EFB06F607FB0EFE1EEB064E4CEB164C9C
:103B20000BFB07F71EEB074E4CEB174B18EB0B0884
:103B300040F1000018EB0E0B58EB000840F10000BC
:103B40008F1A4FF000014FF000063CBFC943661BBF
:103B500014BFB5EB040C00213CBFC943F61B4FEA70
:103B6000174427EA04454FEA1C472CEA074C04FB9C
:103B7000076205FB07F70CFB05F616EB074642EB61
:103B8000174204FB0CFC16EB0C4642EB1C421BEBF1
:103B9000060658EB020241414EEA8E0E46EA9E06A8
:103BA00001D5BDE80189B619524141EB0101A3F1EC
:103BB0000103BDE801894FEA144524EA05464FEAAE
:103BC000114721EA074C05FB07F406FB07F70CFB3E
:103BD00006F111EB074144EB174405FB0CFC11EB1C
:103BE0000C4144EB1C444FEA124722EA074C05FB08
:103BF00007F206FB07F70CFB06F616EB074642EB4F
:103C0000174205FB0CFC16EB0C4642EB1C456A18F0
:103C100054F1000148BF7047B619524141EB010110
:103C2000A3F10103704795F0000F37D04FEA11421E
:103C300021EA02464FEA144724EA074C02FB07F147
:103C400006FB07F70CFB06F414EB074441EB1741A6
:103C500002FB0CFC14EB0C4441EB1C414FEA1547F2
:103C600025EA074C02FB07F506FB07F70CFB06F6F7
:103C700016EB074645EB174502FB0CFC16EB0C4612
:103C800045EB1C42121951F1000148BF7047B619AB
:103C9000524141EB0101A3F1010370474FEA144582
:103CA00024EA05464FEA114721EA074C05FB07F1D4
:103CB00006FB07F70CFB06F212EB074241EB17413C
:103CC00005FB0CFC12EB0C4251EB1C414FF00006C3
:103CD00048BF7047921841EB0101A3F101037047FF
:103CE000490050EAC12018BF04204A0D18BF40F017
:103CF000010040F2FF72B2EB515F08BF40F00200DA
:103D0000012808BF052070472DE9F0414F1E00EB48
:103D1000C7010446D1E9000115461E4637F00602E8
:103D20000DD02A46334601F063F87F1E04EBC7032B
:103D3000D3E9002300F0E0FD37F00602F1D1022FB5
:103D400025D0042F13D0062F18BFBDE8F0812A46D6
:103D5000334601F04DF8D4E90A2300F0CDFD2A46A0
:103D6000334601F045F8D4E9082300F0C5FD2A46A2
:103D7000334601F03DF8D4E9062300F0BDFD2A46A4
:103D8000334601F035F8D4E9042300F0B5FD2A46A6
:103D9000334601F02DF8D4E9022300F0ADFD2A46A8
:103DA000334601F025F8D4E90023BDE8F04100F0E6
:103DB000A3BD0000002213461046014900F058BE82
:103DC0000000F03F00F098BD002213461046114657
:103DD00000F04EBE40F2013200204FF0E04101F011
:103DE000FEBD0000024A0020110701F0F8BD0000EE
:103DF00001FDFFFF30380A2801D201207047002062
:103E0000704700002DE9F04D1D460C4694B0174652
:103E100021F0004123F00043002814BF4FF0010CB3
:103E20004FF0000C0CEB440CFB4A0CEB02064FEA83
:103E3000620C66452BD33E0018BF012606EB4506F3
:103E40001644F64A964222D3F54A53EA070C02D0AA
:103E5000944205D148B914B000201146BDE8F08D58
:103E6000002808BF4FF0000C01D04FF0010C0CEB04
:103E7000440212F5001F0AD8002F14BF4FF0010CA6
:103E80004FF0000C0CEB450212F5001F07D914B0DF
:103E90003A462B462146BDE8F04DFFF793BF00227E
:103EA000DFF880A3002CB8BF534526DADFF878C3CB
:103EB0006345A8BF022220DADFF864C39C451CDCFE
:103EC000DFF868C30CEB235CBCF1140F08DDCCF108
:103ED000340627FA06FC0CFA06F6BE420DD108E0BD
:103EE0005FB9CCF1140623FA06FC0CFA06F69E42E2
:103EF00003D10CF00102C2F1020251EA000C19D107
:103F0000002D17DA002C18BF022A01D0012A07D091
:103F10000220FCF7D1F914B0BDE8F04DFFF74ABF1D
:103F20000220FCF7C9F9FFF745FF14B081F000410A
:103F3000BDE8F08DB7F1000C6CD1534525D104F1EB
:103F4000804212F5801201BF00280020B44914B04D
:103F500008BFBDE8F08DB248884207DC002DA1BF44
:103F60006046294614B0BDE8F08D07E0002DBFBFC4
:103F7000604685F0004114B0BDE8F08DAC4979444D
:103F8000D1E9000114B0BDE8F08DDFF894C26345BB
:103F900025D1002D1FDA19B1514512D1D8B909E048
:103FA000002840F0F6829F4A214614B062F31E01B9
:103FB000BDE8F08D0020214614B060F31E01BDE87D
:103FC000F08D08DA14B02346BDE8F04D024600201B
:103FD000614600F04DBD14B02146BDE8F08D51455D
:103FE00018DAB5F1804F0DD0A5F1005CBCF1FF5C93
:103FF00010D1B4F1000C0DDB14B06146BDE8F04DFA
:1040000000F0F6BB234614B00246BDE8F04D194659
:1040100000F0EEBE060024F0004C3BD1D9B1514572
:1040200033D1002C06DD002DA1BF0020514614B075
:10403000BDE8F08D002C01DD002D1BDB002C13DA18
:10404000002D11DB012A4FF0000014BF754979499A
:1040500014B0BDE8F08D022A18BF002C0AD0012A46
:1040600008D1002C06DA0AE0002CB8BF002D11DAC6
:10407000012A04D0002014B00146BDE8F08D14B030
:1040800000204FF00041BDE8F08DA1F14050B0F1AB
:104090007F601AD0012000EBE47050EA020421D0C6
:1040A0005F4C521E4FF0000B104304BF4FF0000B4B
:1040B000614C624883427DDD614A6248934229DD5A
:1040C000884217DB002D2FDB41E0002C00DA4AB1DB
:1040D000022A0CBF01204FF0FF3014B0BDE8F04DB4
:1040E00000F020BE0120FCF7E7F814B0BDE8F04D69
:1040F000FFF76ABE4A4A8A420CDC002D14DC02201B
:10410000FCF7DAF8FFF76EFE61F31E0414B02146E7
:10411000BDE8F08D814202DA002D18DA04E0404B50
:10412000994220DD002D12DD0220FCF7C5F8FFF7D3
:1041300051FE05460E46002253465846214600F0E1
:1041400057FE14B066F31E012846BDE8F08D02202C
:10415000FCF7B2F8FFF746FE0A46214614B062F3B8
:104160001E01BDE8F08D00223046614601F066F880
:10417000064688466FF0010201F031FC4FF05532DF
:10418000314B00F069FF3246434600F031FE002219
:104190002E4B00F061FF8A4632464346029010469D
:1041A000194600F025FE5346029A00F021FE824691
:1041B000324600E054E0059143464FF0C0402449A8
:1041C00000F016FECDE90C01224A214B504605991C
:1041D00000F00EFE824601911F4A204B30464146B8
:1041E00000F006FE5246019B01F028F882460B467D
:1041F00002460991DDE90C0100F07EFBDDE90C23AC
:1042000000268846304601F019F85246099B00F016
:1042100023FF024600F07EB9FFFF1F00FFFF0F00E3
:104220000000F03F0000F07F0000404301FCFFFF72
:10423000BE1B00000000F0FF0000F0BF0000E041E6
:104240000000F043FFFFEF3F5555D53F0000E03F32
:104250004715F73FFE822B6544DF5DF80BAE543EF9
:104260000020B1F5801F07DA35223046614601F0A3
:10427000B6FB06466FF0340000EB2150A0F2FF3091
:104280000190C1F3130040F07F6141F04051029171
:10429000FE498842D8BF002004DDFD498142C8BFE5
:1042A000012001DD0F9008E000200F900198401CD4
:1042B00001900298A0F5801002900299F548784488
:1042C00005910F9900EBC1001290D0E90023304610
:1042D000059900F0B3FFCDE90C011298D0E9002355
:1042E0003046059900F008FB02460B460020EA49DB
:1042F00000F0BEFB0B46CDE908010246DDE90C01EA
:1043000000F076FD0A90E5488A464FF000087844B0
:104310000299006810904FF0005040EA61010F9838
:1043200001EB804000F5002112981191D0E90023A3
:10433000109800F083FF3246059B00F08DFE424648
:10434000534600F055FDDDE9102306460391404633
:10435000514600F04DFDDDE90C2300F07DFE3246B4
:10436000039B00F06BFFDDE9082300F041FD0391A2
:104370000A9A129053461046194600F039FD064637
:104380000246C7480B46029106217844FFF7BCFC61
:10439000029B3246059108901046194600F028FD10
:1043A000059B089A00F024FD0646099153464046B5
:1043B00019460A9A00F0A0FA039B129A00F018FD21
:1043C0003246099B00F098FACDE90801424653466F
:1043D0001046194600F00CFD02460B46029104906F
:1043E0000020B04900F088FADDE9082300F084FAE3
:1043F0000E464246AB4B404600F020FF029B049A1B
:1044000000F01CFFDDE9082300F026FE424604917F
:10441000029033461046514600F0EAFCCDE90C010B
:1044200053460A9A0499029800F0E2FC82460091F1
:10443000334642460399129800F0DAFC5246009B3C
:1044400000F05AFA82460B4602460991DDE90C015A
:1044500000F052FADDE90C2300268846304600F0D1
:10446000EDFE5246099B00F0F7FDCDE908014346F9
:1044700032464FF060408C4900F0BAFC824604910D
:10448000DDE90801894A884B00F0B2FC02910090F6
:10449000434632468648874900F0AAFC029B009AB0
:1044A00000F02AFA844B7B440F9A03EBC203D3E952
:1044B000002300F021FA00900291019800F032FCF4
:1044C0000E9003915046029B009A049900F014FA52
:1044D0007A4A7A440F9B02EBC3030993D3E9002382
:1044E00000F00AFA039B0E9A00F006FA884630465E
:1044F000039B0E9A00F0A2FE099BD3E9002300F073
:104500009DFE5246049B00F099FE029B009A00F02B
:10451000A3FD024600200B4602903846294600F0D3
:1045200067FC824603912B4638461946029A00F0F2
:1045300085FE3246434600F05BFC5246039B00F08A
:10454000DBF907468A46324643462946029800F080
:104550004FFC05460E463A46534600F0CDF9584A00
:104560008846914221DBA8EB020353EA000210D1F6
:104570002A46334600F062FECDE90310514A524B01
:104580003846514600F0B8F9DDE9033200F02EFD5F
:1045900021D20220FBF790FEFFF71CFC0A462146C1
:1045A00014B062F31E01BDE8F08D484B28F00042C4
:1045B0009A4210D3464A08EB020353EA00027FF402
:1045C000C6AD2A46334600F039FE3A46534600F05F
:1045D0000DFD7FF6BCAD0022019228F000403D4960
:1045E0003D4A01EB2051824223DA481C4FF48011EE
:1045F00021FA00F04044394AC0F30A517A44384B5A
:10460000A1F2FF31CB4020EA0303C0F3130040F4D2
:104610008010C1F11401C84012680190B8F1000F78
:10462000BCBF404201902846314600F007FE0546D7
:104630000E462A4633463846514600F05DF94FF0A3
:1046400000084246274B4046039100F0D1FBCDE9DC
:104650000C01254A254B4046039900F0C9FB029105
:1046600000902A4633464046039900F0E7FD3A465B
:10467000534600F0F1FC1E4A1E4B00F0B9FB029BB2
:10468000009A00F039F90746884635E08E98030015
:104690007AB60B00AE1700000000F03F2E180000A5
:1046A000121700000000084009C7EE3FFD033ADC86
:1046B000F5015B14E02F3EBEE6150000AA150000D0
:1046C00000009040FE822B654715973C00CC90403F
:1046D00000346F3F01FCFFFF0000E03F4015000089
:1046E000FFFF0F00432EE63F396CA80C615C20BE33
:1046F000EF39FAFE422EE63F02460B46DDE90C0199
:1047000000F0FAF8DDE90C2305460E4600F096FDB0
:104710003A46434600F0A0FC07462A463346059138
:104720001046194600F064FB824602462E48884631
:104730000B4605217844FFF7E7FA5246434600F05E
:1047400057FB2A46334600F087FC80468A463A46A5
:1047500028463146059B00F04BFB3A46059B00F08E
:10476000CBF80591009000224FF08043404651461F
:1047700000F064FD07460391424653462846314601
:1047800000F036FB3A46039B00F072F9059B009A55
:1047900000F054FD2A46334600F050FD0022134B32
:1047A00000F05AFC054601980E4601EB0051081531
:1047B000002810DC28463146019A01F010F9FFF775
:1047C0008FFA042808BFFFF70DFB28463146019AEF
:1047D00001F005F905460B4614B02A465846214615
:1047E000BDE8F04D00F004BB981300000000F03F5E
:1047F0002DE9F04106460F4600F03AFC041E0D4636
:1048000018BF0120284320F00040C0F17F6000F174
:10481000E040C00F0ED0301C18BF0120384320F0FC
:104820000040C0F17F6000F1E040C00F04BF0120F4
:10483000FBF742FD20462946BDE8F08110B500296E
:104840000AD00878002807D005487844FCF75CFDBA
:10485000002801D0002010BD0248784410BD00009F
:10486000EE130000E613000010B500290AD0087806
:10487000002807D005487844FCF746FD002801D001
:10488000002010BD0248784410BD0000DE13000077
:10489000D613000021F0004201F00043A2F1605263
:1048A000B2F5801F28BFD2F17F6C0BD95FEA001CE4
:1048B00043EAC20242EB507018BF704728BF20F095
:1048C00001007047B2F5801FBCBF184670474FEA21
:1048D000410C1CF5001F02D2084600F0D0BF70B595
:1048E00000F030FB00000089FFF7F6BF4FF00040FA
:1048F000A0F580007047000010B591EA030F48BF93
:1049000083F0004300F1A284841A71EB030C05D2FA
:10491000121943EB0C03001B61EB0C014FEA11541D
:10492000A4EB135CDFF81CE11EEA430F18BF9EEAFC
:10493000445F00F0748021EA045123EA0E0343F43B
:104940008013DCF1200E32D322FA0CFE10EB0E00A5
:1049500023FA0CFE41EB0E01CCF1200E03FA0EFE01
:1049600010EB0E00CCF1200E51F10001B1F5801FCB
:1049700032D201EB045112FA0EF2BDE8104058BFDA
:104980007047401C38BF5FEA420218BF70470028DA
:1049900014BF20F0010041F100014FEA410313F57B
:1049A000001F38BF7047A1F1C04100F019BB012AB8
:1049B00043EB0302ACF1200CDCF11F0E32BF4FF0D1
:1049C000000E23FA0CF310EB030041EB0451B4EB9F
:1049D000115FD0D0A1EB045101F58011490801EB22
:1049E00004515FEA30000ED350F1000038BF12FAD4
:1049F0000EFE08D1BDE81040C9E7401C38BF5FEA91
:104A00004202CAD1C3E7BDE810404FEA410313F5A3
:104A1000001F38BF7047A1F1C04100F0E1BA9EEA23
:104A2000445F08D011EA5E0FBDE8104004BF01F0FA
:104A3000004100207047BDE8104070B500F082FAD8
:104A400064FBBE3E0000E0FF02494FF0000000F0B2
:104A500094BF00BF0000F87F491058BFC1F140412A
:104A60005B1058BFC3F140438B42EFF300807047A7
:104A70002DE9C04130B4DFF8A4C23CEA111418BFDC
:104A80003CEA131400F0ED801CEA111481EA0305DE
:104A900044EAD57418BF1CEA131500F0C880A4EBD3
:104AA000050404F17F7404F500344FF0004545EA35
:104AB000C12145EAC32341EA505143EA52534FEA28
:104AC000C0204FEAC222994208BF904200F09D8068
:104AD0004FEA13650FF24416765D4FEA134506FB65
:104AE00005F7C7F1807706FB07F74FEAD737A7FB33
:104AF00003687642A7FB06CEC8F5803838BFA8F118
:104B0000010807FB08E6A6FB028C4FF0000EE6FB4F
:104B100003CEDCF1000CCEF1004E38BFAEF1010E39
:104B2000A6FB0C584FF00007E6FB0E87A1FB08C65A
:104B3000A0FB07CE16EB0E064FF0000545F1000571
:104B4000E1FB076515F1E04E7EBFA4F580345FEA16
:104B500046066D4116F1800745F100054FEA17271B
:104B600047EA05674FEA15254FEA0666A6F1DE46D5
:104B7000B6F1805F20D9384605EBC47124F0010CF2
:104B800001EB0C11BCF1FE6F02D8F0BCBDE8008156
:104B900024425CBF01F5801E9EEAC47F02D4F0BCB3
:104BA000BDE80081244200F13980A1F1C041F0BC90
:104BB000BDE8004100F014BA4FEAD02040EA41506D
:104BC0004FEAD1214FEAD22242EA43524FEAD3239D
:104BD000A7FB028607FB036605FB02661EEA0E0FB3
:104BE00058BFA6EB0056B6EB00564FEA520E4EEAFF
:104BF000C37E18EB0E0E56EB530EBCD518EB020815
:104C00005E417F1C55F10005B5E74FF480154FF06C
:104C100000074FF000064FF00008ACE701F1C0417B
:104C200001F000414FF00000F0BCBDE800810CEA4B
:104C3000131511EA0C1F00D00CE013EA0C1F00F052
:104C400026804FF0000081EA030101F00041F0BC32
:104C5000BDE80081F0BCBDE8004181EA030100F03D
:104C6000BFB9F0BCBDE8004170B500F06BF900BF02
:104C7000097EFC3E00F007B84FF0000081EA030116
:104C800001F00041704781EA030100F0A9B9F0BCCE
:104C9000BDE8004122494FF000007047FFFDFBF9DD
:104CA000F7F5F4F2F0EEEDEBE9E8E6E4E3E1E0DE5F
:104CB000DDDBDAD8D7D5D4D3D1D0CFCDCCCBCAC8D1
:104CC000C7C6C5C4C2C1C0BFBEBDBCBBBAB9B8B7F8
:104CD000B6B5B4B3B2B1B0AFAEADACABAAA9A8A8EB
:104CE000A7A6A5A4A3A3A2A1A09F9F9E9D9C9C9BB9
:104CF0009A99999897979695959493939291919064
:104D00008F8F8E8E8D8C8C8B8B8A898988888787F4
:104D10008685858484838382828181800000FF0769
:104D20000000F87F10F0004248BF4042B0FA80F324
:104D300010FA03F10AD0C3F11D0303F5806302EBFF
:104D400003524FEA415002EBD12170474FF000006F
:104D50007047B0FA80F310FA03F10AD0C3F11D03D3
:104D600003F580634FEA03524FEA415002EBD12131
:104D700070474FF00000704751EA030C17D41CF540
:104D8000801F58BFBCF5801F00F10680994218BFF4
:104D9000704708BF9042704707D711F5801F58BF72
:104DA00013F5801F19D499427047894270471CF54A
:104DB000801F08D5BCF5801FF7D58B4218BF704700
:104DC00008BF824270474FF4001C1CEB410F38BFF4
:104DD0001CEB430F01D28B42704770B500F0B2F864
:104DE000922449004FF000514FF08053FFF734BE3A
:104DF00070B5DFF848C11CEA111E1EBF1CEA13156E
:104E00009EEA0C0F95EA0C0F00F06F8081EA030414
:104E10004EEAD47EAE4421EA4C1123EA4C1341F40D
:104E2000801143F48013AEF17F7EA1FB024CA0FB06
:104E30000365361955EB0C05A1FB034C4CF100033F
:104E4000A0FB021C16EB0C06654153F1000309425E
:104E500018BF46F0010613F4007F0BD14FEA03316F
:104E60004FEA053041EA155140EA165034036FF01D
:104E700003020AE04FEAC3214FEAC52041EA555137
:104E800040EA5650F4026FF0020202EB2E4201EBB0
:104E9000025585EACE710AD05FEA440C18BF24F0AF
:104EA000004450F1000041F1000120EAD47040F2CA
:104EB000FE7C624500D270BDA84214BF4FF0804412
:104EC0004FF04044002E08BF0024BEF1806FA8BF01
:104ED000A1F1C041BDE8704080F2828001F1C04183
:104EE00001F000414FF0000070470CEA13159EEAF4
:104EF0000C0F18BF95EA0C0F06D081EA030E4FF095
:104F000000000EF0004170BD00F01CF88900013E69
:104F100000F007B800F009B84FEA430C5FEA5C5CA8
:104F200008D081EA030100F05BB84FEA410C5FEA68
:104F30005C5CF6D102494FF0000070470000FF07AB
:104F40000000F87F0EF1020E2EF0030E5EF8046BE7
:104F5000364205D4012A43EB030515F5001F12D88C
:104F6000012841EB010C1CF5001F0CD80ED14FEAB3
:104F7000D17C0CEB4C0C0CF1020C15F5001F08BF9A
:104F80004CEBD37C04E04FF0080C01E04FEAD37CFB
:104F90000CEB4C0526FA05F606F00706B6F1040CF4
:104FA00006D20EEB860CBDE870404CF0010C604759
:104FB000DFE80CF0090B02024FF00041A1F50021DF
:104FC0004FF0000070BD19461046012851EB010456
:104FD00018BFD4F5001484BF002001F0004170BD5B
:104FE0000808A0F500114FEA3101704753EA010C9F
:104FF00017D41CF5801F58BFBCF5801F00F1068038
:105000008B4218BF704708BF8242704707D713F51D
:10501000801F58BF11F5801F19D48B4270479B42E7
:1050200070471CF5801F08D5BCF5801FF7D5994245
:1050300018BF704708BF904270474FF4001C1CEB2C
:10504000430F38BF1CEB410F01D2994270470FB498
:105050000CBC03BCFFF7C1BE10B591EA030F81F091
:1050600000413FF551AC83F0004300F0EFB8000081
:105070002DE9F04101F5801CBCF5001FC0F2C38092
:105080004FEA115C21EA0C5141F480110CF1FD0C46
:105090005FEA5C0C0CF5C07C01D3400049418902F9
:1050A00041EA905187023BA48E0EA45D0A0C04FBDA
:1050B00004F602FB06F6C6F14046A4FB0662F60DB6
:1050C00046EA422606FB06F4A4FB01235242C3F142
:1050D000404338BF5B1EA6FB02420024E6FB0324CC
:1050E000D20B42EA4446A6FB0623A1FB02E2A3FB45
:1050F00007E4A4184FF0000252F10002E3FB014262
:105100006442C2F1404E38BFAEF1010EA6FB04234B
:105110004FF00002E6FB0E32A2FB0346B6194FF039
:10512000000454F10004E2FB0264A1FB06E6A4FBC8
:1051300007E816EB08064FF0000858F10008E4FBFA
:1051400001687642C8F1405838BFA8F10108A2FBB7
:1051500006E4A3FB08E52D194FF0000454F1000408
:10516000E2FB0854A1FB05E6A7FB04E818EB0608E0
:105170004FF0000656F10006E1FB048618F1200509
:1051800056F10006A80940EA8660B109A8F11B089B
:1051900008F03F08B8F10A0F1CD901EB0C51BDE82B
:1051A000F08100BFFCF5EEE8E2DDD8D3CFCBC7C37A
:1051B000C0BDB9B6B4B1AEACA9A7A5A3A19F9D9B34
:1051C0009A9896959392908F8D8C8B8988878685F7
:1051D00084838281A0FB006800FB01F208EB420897
:1051E000B8EB872807D5341858EB0104D5D5401CF7
:1051F00051F10001D1E7341A78EB0104CDD4401EFF
:1052000071F10001C9E75FEA4C0C5FEA9C5C0DD1CB
:1052100005D301F000414FF00000BDE8F081BDE88A
:10522000F04170B5FFF78EFE6DDBFFBEBDE8F041CB
:1052300001494FF0000070470000F87F10B591EA77
:10524000030F48BF83F000433FF55EAB841A71EB58
:10525000030C07D28CF0004C121943EB0C03001B1B
:1052600061EB0C014FEA1154A4EB135CDFF8A4E1ED
:105270001EEA430F18BF9EEA445F00F0B48021EAA3
:10528000045123EA6E035242C3EB6E0338BF5B1E28
:10529000DCF1200E25D322FA0CFE10EB0E0043FAAF
:1052A0000CFE41EB0E01CCF1200E03FA0EFE10EBCA
:1052B0000E00CCF1200E51F1000129D401EB045174
:1052C00012FA0EF2BDE8104058BF7047401C1CBFD8
:1052D000B2F1004F704700280CBF491C20F00100BC
:1052E000704712EB020E43EB030218BF4FF0010EA2
:1052F0004EEA4202ACF1200CDCF11E0E56D943FA04
:105300000CFE10EB0E00CCF11E0E51F1FF31D5D585
:105310000EF1010E12FA0EFE404141EB010101EBCC
:10532000445C5FEA5C5C10D901EB045110EBDE7069
:1053300038BFBEF1004FBDE8104018BF70470028CD
:105340000CBF491C20F00100704734D24FEAD42C26
:1053500024F4006411F500111BD0B1FA81F20B3A6C
:10536000A41AA41ED2F12003914030FA03F319438A
:10537000904001EBCC7101EB0451002CBDE81040D2
:10538000A8BF704701F1C04101F000414FF000009B
:105390007047B0FA80F310FA03F102D1BDE8104073
:1053A0007047E41A173C4805C90AE2E701EB0451CB
:1053B000BDE81040704749104FEA300001EB04513E
:1053C000BDE8104002E04FF0000170474A0008BFFE
:1053D0000042F8D0B2F5001F28BF704701F000412D
:1053E0004FF0000070479EEA445F07D011EA5E0F5D
:1053F000BDE8104004BF002100207047BDE8104008
:1054000070B5FFF79FFD00BF40DFF63E104683F00A
:10541000004170470000E0FF43004FEAD30C4FEA21
:105420003C0C43401FBF40070CF1605113F0FE4F8E
:1054300070471CF0006F03D10CF000410020704752
:105440000CF0004343EA507040EACC0010B500F085
:10545000D0F900BF000000924FEA0001FFF7C0BD85
:105460004FF00041A1F500214FF00000704700000F
:1054700090EA010F48BF81F0004100F10C82421A0E
:105480003CBF801A89184FEAD052A2EBD1534FF09B
:105490007F4C1CEA410F18BF9CEA026F00F03B8072
:1054A0004FF0004C4CEA00204CEA012121FA03FCA9
:1054B00010EB0C0C1ED202F1FF325FEA1C2040EB15
:1054C000C25038BF70471CF07F0F4FEA400C18BF26
:1054D000BCF17F4F38BF7047C3F12003994008BF2C
:1054E00020F00100BCF17F4F38BF7047A0F1C040F1
:1054F00000F0C5B94FEA3C00000A40EBC25028BF9B
:105500001CF0FF0F4FEA400CE6D018BFBCF17F4FF4
:1055100038BF7047EAE79CEA026F05D010EA5C0FDB
:1055200008BF00F00040704710B500F062F900BFFE
:1055300064FBBE3E4FF47F0C1CEAD0121EBF1CEA77
:10554000D11392EA0C0F93EA0C0F00F0858090EAD9
:10555000010F48BF42F4807240F4000C41F4000097
:105560002CF07F4120F07F4000B5A2EB0302814286
:105570000FF2081CACEB504E9EF800E0C0F10000AA
:105580004FEA4E0E00FB0EFC38BF49004FEA2C1CC0
:105590000CFB0EF34FEACE1E0EEB635E4FEA112CAE
:1055A0000EFB0CFC4FEAC1214FEA1C5300FB031118
:1055B00002F5FA024FEA112C0EFB0CFC4FEA013106
:1055C0004FEADC4C00FB0C1142EB2242C14228BFE7
:1055D00009184CEB03335DF804EB10EB410143EB8E
:1055E000C250B2F57C0F38BF704729D512F0F00FCA
:1055F0001CBF00F1C04000F0004070470081828372
:105600008485868788898B8C8D8E8F9192939596D1
:1056100097999A9C9D9FA0A2A3A5A7A8AAACAEB05B
:10562000B2B3B5B7B9BCBEC0C2C5C7C9CCCED1D460
:10563000D7D9DCDFE2E6E9ECF0F3F7FAFE00000090
:105640004FEA400C0CF1807CBCF17E4F28BF7047C4
:10565000B0F1C04000F013B90CEAD11390EA010F89
:1056600048BF42F48072624538BF634507D213F4E5
:105670007F0F16D080EA010000F00040704710B59F
:1056800000F0B7F8097EFC3E00F005B880EA0100A2
:1056900000F00040704780EA010000F0004000F098
:1056A000EEB812F47F0F04BF0248704780EA010091
:1056B00000F0E5B80000C07F41000B0ED3F19E0260
:1056C00008D950F400034FEA032323FA02F048BF3D
:1056D0004042704710B500F08CF800BF499224801A
:1056E000002070476FF0004282EA200070470000FF
:1056F0004FF47F0C1CEAD0121EBF1CEAD11392EAB1
:105700000C0F93EA0C0F00F0478090EA010F48BF9E
:1057100042F480724FF0004C4CEA00204CEA012128
:1057200002EB0302A0FB0113A2F50002002918BF3F
:1057300043F001035B0028BF4FEA330342EB2242F0
:105740005FEA132C4CEBC2502EBFBCEB436FB2F59B
:105750007C0F70474FEA036CBCF1004F08BF20F08C
:105760000100B2F57C0F38BF70470BD582F0FF0205
:1057700012F5803FC8BF704700F1C040D8BF00F0AD
:105780000040704700F5000C5FEA4C0C48BF7047C2
:10579000B0F1C04000F073B80CEAD11390EA010FE9
:1057A00048BF42F48072624538BF634504D280EA44
:1057B000010000F00040704710B500F01AF800BF7B
:1057C0008900013E00F007B800F009B85FEA410C1B
:1057D0005FEA1C6C08D080EA010000F050B85FEA74
:1057E000400C5FEA1C6CF6D14FF00040A0F5800041
:1057F00070470EF1020E2EF0030E5EF8044B2442A9
:1058000004D44FEA4102B2F17F4F11D84FEA40036E
:10581000B3F17F4F0CD80ED14FEAD07C0CEB4C0C7F
:105820000CF1020CB2F17F4F08BF4CEBD17C04E0CD
:105830004FF0080C01E04FEAD17C0CEB4C0324FA4A
:1058400003F404F00704B4F1040C06D20EEB840C4C
:10585000BDE810404CF0010C6047DFE80CF0070891
:1058600002024FF00040A0F5800010BD0846420043
:1058700018BFD2F1807288BF00F0004010BDFF2138
:1058800041EAD050C005704790EA010F48BF81F04F
:1058900000413FF5F4AD421A04D882F00042A0EB7B
:1058A000020011444FEAD052A2EBD1534FF07F4C8B
:1058B0001CEA410F18BF9CEA026F4AD04FF0004C1F
:1058C0004CEA00204CEA012121FA03FCB0EB0C0C5D
:1058D0000FD412F0FE0F36D05FEA4C001DD5001237
:1058E00040EBC25038BF70471CF03F0F18BF7047E5
:1058F0000BE05FEA1C20A2F1010240EBC25038BF6E
:1059000070471CF07F0F18BF7047C3F12003994008
:1059100014BF401E20F0010070474FEA1223800898
:1059200008BF7047B0FA80FCA2EB0C02CCF1280C47
:1059300060FA0CF093EA122F04BF00EBC2507047DC
:105940004FEAC3707047130A5FEADC1008BF704764
:10595000F6E79CEA026F04D010EA5C0F08BF002053
:10596000704710B5FFF745FF40DFF63E81F000407D
:105970007047FBF7D3B8FBF707BA0CF00F03092BFE
:1059800008BF082000F059800A2B0BD0082B18BF45
:10599000704708BF1CF0400F0AD04FF000004FF0D6
:1059A000000170471CF0400F18BF4FF000407047D7
:1059B0001CF0100F08D000F07F4220F0704342EA44
:1059C000D3014FEA4370704700F0604021F07F42FE
:1059D00042EA000201F07F4040EA727070474FF0E7
:1059E000FF0C4CF4E06C1CEA11531CBF9CEA030C46
:1059F0009445C2BFDA4201EB02517047002B0DD033
:105A0000BCF1000F0FD001F00041002AA4BF41F00B
:105A1000E04141F07F614FF00000704701F000412C
:105A20004FF00000704750EA01334FF09B0C18BF55
:105A30004CF0806C7FF408A870471CF4801F11D0D4
:105A40001CF4E02F03D06FEACC31490070474FF0CF
:105A50004050EFF3008222F0704242EA000282F3EB
:105A6000008870474FF00000704700000000000001
:105A7000000000000000F03F000000000000F83FC0
:105A800000000000000000000000004003B8E23FFA
:105A9000000000000000000006D0CF43EBFD4C3EAC
:105AA000033333333333E33FFFAB6FDBB66DDB3FA1
:105AB0004D268F515555D53F01411DA96074D13FE9
:105AC00065DBC9934A86CD3FEF4E454A287ECA3FE3
:105AD0003E5555555555C53F93BDBE166CC166BF65
