:020000040800F2
:10000000D006002089010008910100089301000832
:100010009501000897010008990100080000000000
:100020000000000000000000000000009B0100082C
:100030009D010008000000009F010008A1010008C8
:10004000A3010008A3010008A3010008A301000800
:10005000A3010008A3010008A3010008A3010008F0
:10006000A3010008A3010008A3010008A3010008E0
:10007000A3010008A301000845020008A30100082D
:10008000A3010008A3010008A3010008A3010008C0
:10009000A3010008A3010008A3010008A3010008B0
:1000A000A3010008A3010008A3010008A3010008A0
:1000B000A3010008A3010008A3010008A301000890
:1000C000A3010008A3010008A3010008A301000880
:1000D000A3010008C5060008A3010008A301000849
:1000E000A3010008A3010008A301000800F002F822
:1000F00000F03AF80AA090E8000C82448344AAF188
:100100000107DA4501D100F02FF8AFF2090EBAE885
:100110000F0013F0010F18BFFB1A43F0010318473B
:100120007807000098070000103A24BF78C878C10B
:10013000FAD8520724BF30C830C144BF04680C60ED
:10014000704700000023002400250026103A28BF35
:1001500078C1FBD8520728BF30C148BF0B60704739
:100160001FB51FBD10B510BD00F031F81146FFF7E7
:10017000F7FF00F073FB00F04FF803B4FFF7F2FF56
:1001800003BC00F057F800000948804709480047C1
:10019000FEE7FEE7FEE7FEE7FEE7FEE7FEE7FEE737
:1001A000FEE7FEE704480549054A064B7047000094
:1001B0005D060008ED000008D0000020D0060020F9
:1001C000D0020020D002002070477047704775466B
:1001D00000F02CF8AE4605006946534620F00700B3
:1001E000854618B020B5FFF7DDFFBDE820404FF091
:1001F00000064FF000074FF000084FF0000BAC4630
:10020000ACE8C009ACE8C009ACE8C009ACE8C0097A
:1002100021F007018D46704710B50446AFF300800A
:100220002046BDE81040FFF7A8BF00000048704717
:100230000800002001491820ABBEFEE7260002009E
:100240007047000080B500F043F840F26800C2F249
:100250000000322100F026F80421C4F202010868EF
:1002600040F40050086080BD82B001900091019878
:100270005021C4F20201086000984821C4F2020132
:1002800008604421C4F20201086840F001000860DF
:1002900002B070474421C4F20201086820F0010056
:1002A0000860704782B00190009101986421C4F207
:1002B0000201086000985C21C4F202010860582124
:1002C000C4F20201086840F00100086002B0704703
:1002D0005821C4F20201086820F00100086070474C
:1002E00080B582B041F21401C4F20201086840F006
:1002F000010008604421C4F20201086840F0800057
:100300000860086840F010000860086840F00200CB
:1003100008604C21C4F2020143F60400C4F201005B
:10032000019008600E2000F081FA01986021C4F26B
:10033000020108605821C4F20201086840F0800000
:10034000086002B080BD000080B500F001F880BDFB
:1003500084B000200390029041F20001C4F2020137
:10036000086840F480300860FFE741F20000C4F202
:100370000200006800F400300290039801300390FE
:10038000FFE702990020019039B9FFE70398B0F523
:10039000A06018BF01200190FFE70198C007002866
:1003A000E3D1FFE741F20000C4F2020000688003DD
:1003B000002803D5FFE70120029002E00020029010
:1003C000FFE70298012851D1FFE742F20001C4F291
:1003D0000201086840F010000860086820F003007F
:1003E0000860086840F00200086041F20401C4F2AD
:1003F000020100910868086008680860086840F415
:1004000080600860086820F47C100860086840F488
:10041000E810086041F20001C4F20201086840F0EF
:1004200080700860FFE741F20000C4F2020000683B
:100430008001002801D4FFE7F5E741F20401C4F28E
:100440000201086820F003000860086840F002001C
:100450000860FFE741F20400C4F20200006800F007
:100460000C00082801D0FFE7F4E700E0FFE704B044
:100470007047000041F20001C4F20201086840F038
:1004800001000860FFE741F20000C4F202000068CA
:100490008007002801D4FFE7F5E741F20401C4F228
:1004A000020100200860FFE741F20400C4F20200EC
:1004B000006810F00C0F01D0FFE7F5E741F20001F2
:1004C000C4F20201086820F08070086041F2040262
:1004D000C4F20202106820F47C101060106840F42E
:1004E000A0101060086840F080700860FFE741F2DB
:1004F0000000C4F2020000688001002802D4FFE777
:1005000000BFF4E741F20401C4F20201086820F0E0
:1005100003000860086840F002000860FFE741F24D
:100520000400C4F20200006800F00C00082801D0AA
:10053000FFE7F4E77047000084B0002003900290CA
:10054000019041F20400C4F20200006800F00C00C7
:1005500003900398009040B1FFE7009804280ED064
:10056000FFE70098082814D056E040F20001C2F2DC
:10057000000141F20020C0F27A00086056E040F22B
:100580000001C2F2000141F20020C0F27A000860CE
:100590004CE041F20400C4F20200016801F4701161
:1005A0000291006800F4803001900299022000EB73
:1005B00091400290019860B9FFE7029840F600115F
:1005C000C0F23D01484340F20001C2F20001086060
:1005D00021E041F20400C4F2020000688003002818
:1005E0000CD5FFE7029840F60011C0F23D014843E8
:1005F00040F20001C2F2000108600BE0029841F2F3
:100600000021C0F27A01484340F20001C2F2000129
:100610000860FFE7FFE709E040F20001C2F20001D5
:1006200041F20020C0F27A000860FFE741F20400C6
:10063000C4F202000068C0B2010940F68600C0F6AC
:100640000000405C0390039A40F20001C2F20001F6
:100650000868D040086004B07047000080B541F2DF
:100660000002C4F20202106840F00100106041F282
:100670000401C4F2020108680023CFF6FF0318400A
:10068000086010684FF6FF73CFF6F66318401060ED
:10069000106820F480201060086820F4FE000860D4
:1006A00041F20801C4F202014FF41F000860FFF795
:1006B0004BFE4EF60851CEF200014FF0006008608C
:1006C00080BD000080B584B043F60000C4F2010094
:1006D000008843F60400C4F20100008840F632208E
:1006E000ADF8080043F22000C3F6371001905C20FB
:1006F000C4F202000068C0F132008DF803009DF8DA
:1007000003008DF80200FFE79DF802009DF803103A
:100710000631884213DAFFE79DF802209DF80300B6
:10072000111A01A8405C40F26801C2F2000188542D
:10073000FFE79DF8020001308DF80200E4E7FFF7C3
:10074000A9FD9DF8021040F26800C2F20000FFF718
:100750008BFD039804B080BD80B541F21801C4F24E
:100760000201086840F004000860086840F4804016
:10077000086040F60401C4F20101086820F040005E
:100780000860086840F0B0000860086820F4406025
:100790000860086840F400600860086820F4407051
:1007A000086040F61001C4F20101086840F480605E
:1007B000086043F60802C4F201021088002010808D
:1007C00040F20001C2F20001096848F2B513C1F617
:1007D0004E33A1FB0313118841EA9321118043F6A4
:1007E0000C01C4F201010A8842F400520A800A880E
:1007F00042F00C020A8043F61002C4F2010210809B
:1008000043F61402C4F201021080108840F0800008
:100810001080108840F040001080088840F01000E0
:100820000880252000F002F880BD000081B08DF81E
:1008300003009DF9030000280ED4FFE79DF9031083
:1008400001F01F02012090404A094EF20011CEF241
:10085000000141F82200FFE701B0704780B582B087
:1008600000200190FFF706FEFFF766FEFFF774FF1A
:10087000FFF736FD40F26800C2F200003221FFF7B8
:1008800011FDFFE7FEE7000000000000000001028C
:100890000304060708090000B8080008000000204B
:1008A0000400000028010008BC080008080000201F
:0C08B000C80600004401000800A24A0431
:040000050800018965
:00000001FF
