:020000040800F2
:10000000680600208901000891010008930100089A
:100010009501000897010008990100080000000000
:100020000000000000000000000000009B0100082C
:100030009D010008000000009F01000875030008F2
:10004000A3010008A3010008A3010008A301000800
:10005000A3010008A301000845020008A30100084D
:10006000A3010008A3010008A3010008A3010008E0
:10007000A3010008A3010008A3010008A3010008D0
:10008000A3010008A3010008A3010008A3010008C0
:10009000A3010008A3010008A3010008A3010008B0
:1000A000A3010008A3010008A3010008A3010008A0
:1000B000A3010008A3010008C9050008A301000866
:1000C000A3010008A3010008A3010008A301000880
:1000D000A3010008A3010008A3010008A301000870
:1000E000A3010008A3010008A301000800F002F822
:1000F00000F03AF80AA090E8000C82448344AAF188
:100100000107DA4501D100F02FF8AFF2090EBAE885
:100110000F0013F0010F18BFFB1A43F0010318473B
:100120002405000044050000103A24BF78C878C1B7
:10013000FAD8520724BF30C830C144BF04680C60ED
:10014000704700000023002400250026103A28BF35
:1001500078C1FBD8520728BF30C148BF0B60704739
:100160001FB51FBD10B510BD00F036F81146FFF7E2
:10017000F7FF00F04DFA00F054F803B4FFF7F2FF78
:1001800003BC00F057F800000948804709480047C1
:10019000FEE7FEE7FEE7FEE7FEE7FEE7FEE7FEE737
:1001A000FEE7FEE704480549054A064B7047000094
:1001B00061050008ED0000086800002068060020C6
:1001C00068020020680200207047704770470000F6
:1001D00000487047080000207546FFF7F9FFAE465B
:1001E00005006946534620F00700854618B020B543
:1001F000FFF7D8FFBDE820404FF000064FF00007A2
:100200004FF000084FF0000BAC46ACE8C009ACE87A
:10021000C009ACE8C009ACE8C00921F007018D466F
:10022000704710B50446AFF300802046BDE810408B
:10023000FFF7A3BF01491820ABBEFEE7260002006E
:10024000704700007047000080B500F001F880BDE5
:1002500084B000200390029041F20001C4F2020138
:10026000086840F480300860FFE741F20000C4F203
:100270000200006800F400300290039801300390FF
:10028000FFE702990020019039B9FFE70398B0F524
:10029000A06018BF01200190FFE70198C007002867
:1002A000E3D1FFE741F20000C4F2020000688003DE
:1002B000002803D5FFE70120029002E00020029011
:1002C000FFE70298012851D1FFE742F20001C4F292
:1002D0000201086840F010000860086820F0030080
:1002E0000860086840F00200086041F20401C4F2AE
:1002F000020100910868086008680860086840F416
:1003000080600860086820F47C100860086840F489
:10031000E810086041F20001C4F20201086840F0F0
:1003200080700860FFE741F20000C4F2020000683C
:100330008001002801D4FFE7F5E741F20401C4F28F
:100340000201086820F003000860086840F002001D
:100350000860FFE741F20400C4F20200006800F008
:100360000C00082801D0FFE7F4E700E0FFE704B045
:10037000704700007047000041F20001C4F2020122
:10038000086840F001000860FFE741F20000C4F295
:10039000020000688007002801D4FFE7F5E741F27A
:1003A0000401C4F2020100200860FFE741F20400EA
:1003B000C4F20200006810F00C0F01D0FFE7F5E76F
:1003C00041F20001C4F20201086820F08070086068
:1003D00041F20402C4F20202106820F47C101060A2
:1003E000106840F4A0101060086840F08070086049
:1003F000FFE741F20000C4F202000068800100281B
:1004000002D4FFE700BFF4E741F20401C4F20201A5
:10041000086820F003000860086840F002000860E7
:10042000FFE741F20400C4F20200006800F00C0093
:10043000082801D0FFE7F4E77047000084B00020EF
:1004400003900290019041F20400C4F2020000689F
:1004500000F00C0003900398009040B1FFE7009873
:1004600004280ED0FFE70098082814D056E040F288
:100470000001C2F2000141F20020C0F27A000860DF
:1004800056E040F20001C2F2000141F20020C0F249
:100490007A0008604CE041F20400C4F202000168F6
:1004A00001F470110291006800F48030019002990B
:1004B000022000EB91400290019860B9FFE702989A
:1004C00040F60011C0F23D01484340F20001C2F283
:1004D0000001086021E041F20400C4F2020000685B
:1004E000800300280CD5FFE7029840F60011C0F207
:1004F0003D01484340F20001C2F2000108600BE0F8
:10050000029841F20021C0F27A01484340F2000112
:10051000C2F200010860FFE7FFE709E040F20001D6
:10052000C2F2000141F20020C0F27A000860FFE749
:1005300041F20400C4F202000068C0B2010940F2B6
:100540003260C0F60000405C0390039A40F2000164
:10055000C2F200010868D040086004B07047000093
:1005600080B541F20002C4F20202106840F00100BE
:10057000106041F20401C4F2020108680023CFF6C2
:10058000FF031840086010684FF6FF73CFF6F6635C
:1005900018401060106820F480201060086820F473
:1005A000FE00086041F20801C4F202014FF41F008E
:1005B0000860FFF749FE4EF60851CEF200014FF0F9
:1005C0000060086080BD000040F61001C4F2000128
:1005D000088820F00100088040F60C00C4F20100F9
:1005E00000688006002809D5FFE740F61001C4F234
:1005F0000101086840F40010086008E040F61001AE
:10060000C4F20101086840F020000860FFE770476D
:1006100080B582B000200190FFF7AEFEFFF70EFF1D
:10062000FFE7FFE701200028FBD1FFE7019802B0B8
:1006300080BD000000000000000001020304060766
:100640000809000064060008000000200400000003
:100650002801000868060008080000206006000065
:080660004401000800A24A0455
:040000050800018965
:00000001FF
