:020000040800F2
:10000000080B0020350200083D0200083F020008EE
:1000100041020008430200084502000800000000F9
:10002000000000000000000000000000470200087F
:1000300049020008000000004B020008711A000885
:100040004F0200084F0200084F0200084F0200084C
:100050004F0200084F0200084F0200084F0200083C
:100060004F0200084F0200084F0200084F0200082C
:100070004F0200084F0200084F0200084F0200081C
:10008000C51400084F020008751300084F0200084D
:100090004F0200084F0200084F0200084F020008FC
:1000A0004F0200084F0200084F0200084F020008EC
:1000B0004F020008211D00084F0200084F020008EF
:1000C0004F0200084F0200084F0200084F020008CC
:1000D0004F0200084F0200084F0200084F020008BC
:1000E0004F0200084F0200084F02000800F002F81B
:1000F00000F090F80AA090E8000C82448344AAF132
:100100000107DA4501D100F085F8AFF2090EBAE82F
:100110000F0013F0010F18BFFB1A43F0010318473B
:10012000382C0000582C0000103A24BF78C878C141
:10013000FAD8520724BF30C830C144BF04680C60ED
:10014000704700000023002400250026103A28BF35
:1001500078C1FBD8520728BF30C148BF0B60704739
:100160006E2900F03F81702900F08182662902F03B
:100170006785652902F06485672902F06185612938
:1001800002F0608503681B0A28BF41F080016929DD
:1001900000F0EC80642900F0E980752900F0E68029
:1001A0006F2900F00F82782900F04D82E92900F0D4
:1001B000A981E42900F0A681F52900F0A381EF29A7
:1001C00000F00C82F82900F04C820368DB0928BF9C
:1001D00041F08001632900F04D87732900F05287B8
:1001E000E32900F05D87F32900F062870020704763
:1001F0001FB500F0B3FF04000020002102F062FAF6
:10020000401C60600020002102F046FAE0601FBD43
:1002100010B510BD00F074FF1146FFF7E9FF01F0C3
:100220003FFE01F051F803B4FFF7F2FF03BC01F009
:1002300099F800000948804709480047FEE7FEE7B3
:10024000FEE7FEE7FEE7FEE7FEE7FEE7FEE7FEE786
:1002500004480549054A064B704700005D1C00082C
:10026000ED00000808050020080B0020080700200A
:10027000080700200FB41CB5084B06AA7B4469464A
:100280000090059800F0C7F804460020694600F089
:10029000D5F820461CBC5DF814FB0000BD01000031
:1002A00070477047704770B5044685690068C1069D
:1002B00001D5302600E02026C00707D070BDD4E964
:1002C000012130469047206A401C20626D1EF6D501
:1002D00070BD70B5044685690078C00707D170BD50
:1002E000D4E9012120209047206A401C20626D1E25
:1002F000F6D570BD09684A0501D540B27047C905F9
:10030000FCD500B2704709684A0501D5C0B27047F4
:10031000C905FCD580B2704770B50C460546012A68
:1003200005D02878800600D5EA69002302E0012381
:1003300005E05B1C934202D2E05C0028F9D1A86979
:10034000E618C01AA861286A184428622846FFF7F0
:10035000AAFF04E0D5E9012114F8010B9047B4424B
:10036000F8D32846FFF7B5FF70BD00002DE9F04136
:100370000646002410687529314616A510D0FFF7EF
:10038000B9FF002802DA404213A507E031688A0766
:1003900001D512A502E0490704D511A5012401E009
:1003A000FFF7B1FF00210A2206F1240709E0B0FBA4
:1003B000F2FCB0FBF2F302FB1C003030785418461C
:1003C000491C0028F3D123462A463046BDE8F041B7
:1003D00000F061BA000000002D0000002B000000BA
:1003E0002000000011680268006A530501D50870FA
:1003F0000AE0D30501D5088006E0130603D5C2172D
:10040000C1E9000200E008600120704701694A1C50
:1004100002610878704700B58FB0CDE90131002145
:10042000059105497944CDE903101146684600F06D
:1004300029F90FB000BD0000E5FFFFFF0A6802F8D0
:10044000010B0A60704700002DE9FF5F15468A46E0
:100450000446DFF8AC80F8440027D8E900103E4697
:10046000CDE9001010E03AF816106A4602A800F034
:1004700023FE411C07D02178890603D5E26939188B
:1004800091420DD80744761C2078800602D5E06999
:10049000B84205DDAE42E6DB3AF816000028E2D1AC
:1004A000A069C01BA0612046FFF7FDFED8E900103F
:1004B000CDE90010002017E03AF818106A4602A8AB
:1004C00000F0FAFDB0F1FF3F81460BD000250DF1A1
:1004D000080B05E0D4E901211BF8050090476D1CCD
:1004E0004D45F7D308F10100B0428046E4DB206AB5
:1004F000384420622046FFF7ECFEBDE8FF9F000075
:10050000EE2700002DE9F0418046D21D22F00702BF
:100510000025D2E90002F52915A614D0011E72F1BA
:10052000000106DA0023D0EB030063EB020211A600
:1005300008E0D8F800108B0701D50FA602E04907A4
:1005400001D50EA601251146002408F1240704E078
:1005500000F05CF930323A55641C50EA0102F7D1E0
:100560002B46324621464046BDE8F04100F093B9A3
:10057000000000002D0000002B0000002000000003
:1005800030B4002100F1240408E002F00705D2088D
:10059000303542EA4372DB086554491C52EA0305D0
:1005A000F3D10468002310A2250708D504F0200425
:1005B0000C4304D0C46901230CA2641EC46130BC86
:1005C00000F069B910B5044621461068FFF79BFE9C
:1005D00002462046BDE810400023D1E7D21D22F09C
:1005E0000701D1E90023CBE7000000003000000044
:1005F000F0B40D460188090502D5214C7C4402E087
:100600001F4C7C440E34002100F1240608E002F067
:100610000F071209E75D42EA03721B097754491C70
:1006200052EA0307F3D102780023120704D5702D94
:1006300006D009B1022311342246F0BC00F02BB9D8
:1006400001231034F8E770B504460D4621461068C2
:10065000FFF759FE024629462046BDE870400023B8
:10066000C6E7D21D22F00703D3E90023C0E70368E1
:10067000126843F0200303600823C3610023B7E737
:10068000502600002DE9F05F894604464FF0000A2D
:10069000DFF874B1FB44C0F820A02046E168884729
:1006A000002874D0252806D0D4E901219047206A7B
:1006B000401C2062F1E700265F462046E16888473B
:1006C0002028054607DB312D05D2781910F8200CBB
:1006D00008B10643F1E7B00701D526F00406C4F8D7
:1006E0001CA00027C4F818A02A2D09D0284601F024
:1006F000CBFF38B304EB8708303DC8F8185019E039
:1007000059F8041B204604EB87029161E168884791
:10071000012F054618D1E069002820DA26F02006CE
:100720001DE0D8F8180000EB800005EB40003038E1
:10073000C8F818002046E1688847054601F0A4FF84
:100740000028EED1012F0AD02E2D08D12046E168D5
:1007500088477F1C0546022F46F02006C4DBA069AF
:10076000002803DA404246F00106A061F00701D0FC
:1007700026F010066C2D0BD0682D09D04C2D39D0E9
:100780006A2D35D0742D35D07A2D33D016E038E06F
:10079000E1682F4620468847B842054609D16C2FAC
:1007A00026D04FF48060E16806432046884705461E
:1007B00004E06C2F1AD04FF4807006430DB3A5F1FE
:1007C0004100192802D8203546F400664A462946D9
:1007D000204626604E46FFF7C3FC80B101280BD0AF
:1007E000F61D26F0070000F1080956E74020E4E76F
:1007F0008020D8E70020D6E706F104094DE7284617
:1008000052E7206ABDE8F09FE025000030B5B0F166
:100810000A0271F100034FEA900E4EEA817EB0EBBE
:100820000E0061EB91014FEA101E4EEA017E10EBC3
:100830000E0041EB11114FEA102E4EEA016E10EB43
:100840000E0041EB11214FEA104E4EEA014E10EB23
:100850000E0041EB1141401841F100014FEAD00078
:1008600040EA41704FEAD1014FEA810444EA9074B2
:1008700010EB800544EB01046D1944EB0404521B9A
:10088000A3414FF0000348BF0A3200D530BD401CE1
:1008900041F1000130BD2DE9F0470D4699469246E1
:1008A000044600F124080168880604D5E06921F0B7
:1008B0001001216000E00120A84201DD471B00E09B
:1008C0000027A1697A1902EB0900081AA0612078B3
:1008D000C00602D42046FFF7E6FC002608E0D4E973
:1008E00001211AF806009047206A401C761C2062FD
:1008F0004E45F4DB2078C0060AD52046FFF7D3FC2E
:1009000006E0D4E9012130209047206A401C206293
:10091000381EA7F10107F4DC07E0D4E9012118F83B
:1009200005009047206A401C2062281EA5F10105A1
:10093000F3DC2046FFF7CDFC2078000602D502202C
:10094000BDE8F0870120FBE72DE9FF4F0C461E466E
:100950004FF0FF378BB0D2E90001DDF860800A90DC
:100960008A46C1F30A5505B93D46002108464FF0B5
:100970000000BAF1000F00F4400005DA00EB80003F
:100980004FF4400101EA50004FEA9059B9F1010FCC
:1009900000DDB9460A9850EA4A000ED044F61050DD
:1009A000A5F2FF3545432F14B8F1000F1ED0754254
:1009B000291E1EDDC9F100021CE0B8F1010F4FF045
:1009C000000001D0302103E0F24305E02154401C37
:1009D000B042FBDB30460022002121540B99C1F8C4
:1009E0000880C1E900200FB0BDE8F08FBD1B6D1C71
:1009F000DEE74A4600DA694206A800F0F3FB06ABE0
:100A000093E8070003AB83E8070050460A9901F01A
:100A10005FFA8DE80700A0F500501F38009003989A
:100A2000002D0ADD42F21F014A460844002303A9B3
:100A30000390684601F0C8FC09E0A0F500504A4662
:100A40001F38002303A90390684601F0D2FC8DE80B
:100A500007000004000C03D04FF0FF30410800E015
:100A60001046B8F1000F03D00022009215461EE098
:100A7000751E05D4FFF7CAFE303262556D1EF9D5DA
:100A8000B3460122084302D000227F1C04E02078F4
:100A9000302801D100227F1E002A099784D01DE052
:100AA000112D07DAFFF7B2FE303262556D1C50EAA5
:100AB0000102F5D1084302D00098C8B10EE0002130
:100AC000681E05E0235C625C63542254401E491C8E
:100AD0008142F7DBAB46A81B401E0990002004F8BA
:100AE0000B000B98099AC0F80880C0E9002B7AE740
:100AF00011264FF0000857E72DE9F04F88460446CD
:100B0000D21D22F0070191B0D1E90001CDE90A011F
:100B100001F0A6FD02460B98C00F01D02D2007E082
:100B20002068810701D52B2002E0202101EAC000C6
:100B3000032A099001D0072A05DB034641462046D7
:100B400000F010FB0BE12078800601D5E06900E0A1
:100B50000620B8F1650F814606D0B8F1660F18D0AF
:100B6000B8F1670F70D131E00020B9F1110F00909A
:100B700001DB112301E009F101030AAA01A90CA874
:100B8000FFF7E2FEDDE90C70002609F1010583465E
:100B900047E001204B4600904FF000470AAA01A908
:100BA0000CA8FFF7D1FEDDE90DB00C995D460026DB
:100BB00010B909F101000D18B9EB050003D4C0F11B
:100BC000FF3609F10105A5EB09002BE0B9F1010F92
:100BD00001DA4FF001090020B9F1110F00904846E9
:100BE00001DD112300E003460AAA01A90CA8FFF7C2
:100BF000ABFEDDE90C704D460026834620780007E9
:100C00000AD4AB4500DA5D4601A8012D04DD411987
:100C100011F8011C302907D04F4502DA17F1040FF3
:100C200004DA012082460FE06D1EEEE7002F02DCA1
:100C3000ED1B3E4403E0781CA84200DD7D1CB81B80
:100C400000F1010A4FF000472078000703D4AA45BD
:100C500001DB4FF0FF3A0021B7F1004F0DF14308DF
:100C60008DF8431024D002202B23002F01DA7F427D
:100C70002D230A21021EA0F1010000DC5FB197FBC9
:100C8000F1FC97FBF1F201FB1C7C17460CF1300CD8
:100C900008F801CDEEE7A8F10100037021880905ED
:100CA00001D5452100E06521A0F1010800F8011CF3
:100CB00009980FA9A1EB0807FF1D00B101204119F8
:100CC00001EBEA70A1693844081A401EA06120783F
:100CD000C00602D42046FFF7E6FA099828B1D4E905
:100CE00001219047206A401C20622078C00622D54E
:100CF0002046FFF7D8FA1EE0002E04DBB34502DDE4
:100D000001A8805D00E03020D4E901219047206AED
:100D1000401C2062761CAAF101005FEA000A0AD199
:100D200000F01CFAC0680168405CD4E901219047DA
:100D3000206A401C2062281EA5F10105DCDC07E0CA
:100D4000D4E9012118F8010B9047206A401C206269
:100D5000381EA7F10107F3DC2046FFF7BAFA03209B
:100D600011B041E62DE9F04F04460D46D21D22F0A8
:100D7000070089B0D0E900974846394601F070FC79
:100D80000246F80F01D02D2307E02068810701D526
:100D90002B2302E0202101EAC0038DF820300BB1A3
:100DA000012000E00020032A824601D0072A04DB4C
:100DB0002946204600F0D6F93FE12078800601D48C
:100DC0000D2500E0E569C7F30A560D2D49DA00212B
:100DD0004FEA175B08464FF00000002F00F4400078
:100DE00007DA00EB80004FF4400100EBD07001EA1D
:100DF00060008115012901DD4FF0FF3100224FEA2B
:100E0000850CBCF1180F06D31346ACF118004FF057
:100E10008052C24003E04FF4801323FA0CF30CF12C
:100E20000C0CBCF1200F04D3ACF1200C09FA0CF02F
:100E300001E007FA0CF000294FF0004801DD18B975
:100E40000FE00ED140450CD319EB02095F4121B9E7
:100E5000404502D19F4329EA0209BBEB175F00D04E
:100E6000761C2088000502D57B48784402E07A4849
:100E70007844193808AA302302F80A30037C0AF1B2
:100E80000101002E0AF1020A53546A4602DC4FF0B7
:100E9000300101E04FF031014FF001088DF80010F2
:100EA00002D0A6F2FF3603E059EA470100D06B4EAC
:100EB000002D02DC2178090704D54FF002082E210D
:100EC0008DF80110C44600210BE0C7F303433F0136
:100ED000C35C491C6D1E02F80830052908F10108A1
:100EE00001DA002DF1DC00210CE000EB1973491C44
:100EF0001B786D1E082902F808304FEA091908F11D
:100F0000010801DA002DF0DC21688B0602D516E01D
:100F1000A8F10108E04505DD02EB080313F8013CE8
:100F2000302BF5D0B8F1000F09DD02EB080313F800
:100F3000013C2E2B03D1090701D4A8F10108002D93
:100F400005DD3E2102F808106D1E08F10108407C05
:100F5000002E02F8080008F1010804DA2D2076427C
:100F600002F8080002E02B2002F808000A214FF4E2
:100F70007A70864208F101080BDB96FBF0F3303300
:100F800002F8083096FBF0F308F1010800FB136645
:100F900001E0642E0CDB642096FBF0F3303302F8A2
:100FA000083096FBF0F308F1010800FB136601E03E
:100FB0000A2E06DB96FBF1F0303002F8080008F14B
:100FC000010896FBF1F001FB1060303002F80800D8
:100FD000A16908F1010808EB050202EB0A00081AF2
:100FE000A0612078C00602D42046FFF75CF9216A90
:100FF00008AE01EB0A00206204E0D4E9012116F8F2
:10100000010B9047BAF1010AF7D22078C00602D549
:101010002046FFF748F96E4609E016F8010B3E2816
:101020000FD0D4E901219047206A401C2062B8F11A
:101030000108F2D22046FFF74CF909B00320BDE8C1
:10104000F08F206A2844206203E0D4E90121302097
:1010500090476D1EEBD3F8E72E1E000002FCFFFF49
:1010600010B5436913B1AFF3008001E0FFF754F905
:10107000012010BD127800F124010A7000224A708C
:101080000122EDE711684FF0FF32E9E710B543693F
:1010900013B1AFF3008001E0FFF7D6F9012010BDD6
:1010A000128800F1240182840022C2840122EDE72B
:1010B00011684FF0FF32E9E72DE9F04116460C4682
:1010C000054600F043F8036893F80101012807D0B2
:1010D000FF2C12D8185D80B101202C70BDE8F08182
:1010E000D3F807013246214603F20713C7182846F2
:1010F000BC46BDE8F041002360474FF0FF30EDE70C
:10110000754600F0EBF8AE4605006946534620F000
:101110000700854618B020B5FFF79AF8BDE82040D3
:101120004FF000064FF000074FF000084FF0000BA3
:10113000AC46ACE8C009ACE8C009ACE8C009ACE812
:10114000C00921F007018D467047000010B500F07E
:1011500005F8001D10BD00BF6D1500000048704768
:10116000A80000202DE9F0411F460446032601682F
:10117000072A01F4006004DB08B116A505E016A5F6
:1011800003E008B115A500E015A521F010002060CE
:10119000A069C01EA0610FB1401EA0612046FFF7EC
:1011A00082F84FB1D4E9012138469047206A401CAB
:1011B0002062C01C206206E0206AFAE7D4E901211F
:1011C00015F8010B9047761EF8D22046FFF781F8FC
:1011D000BDE8F0814E414E006E616E00494E460002
:1011E000696E66002DE9F047814616468AB035489B
:1011F00078440DC88DE80D0032487844801C03AC5B
:101200000DC884E80D0041F69B300844372190FB5F
:10121000F1F290FBF1F5A5F1800501FB12041B3CF6
:1012200002D56442012000E00020DFF898A080464B
:101230000027FA44AAF1BE0A0EE0E0070AD03246BF
:10124000684607EB470101230AEB810101F0D1F861
:101250008DE8070064107F1C002CEED1194F7F44ED
:10126000AE3F19E0E80715D007EB04100DF1180A9E
:1012700090E80E008AE80E00C068F04201D198198B
:1012800008903246012306A903A801F0B2F803AB87
:1012900083E807006D10641C002DE3D14FF00103BB
:1012A00032466946B8F1000F03A802D001F08CF86D
:1012B00001E001F09EF8C9E90001C9F808200AB070
:1012C000BDE8F087381B000010B50446AFF300807E
:1012D0002046BDE81040FEF7A6BF0000004870475A
:1012E000880000204FF0013C50F8042B51F8043BDB
:1012F0009A4221D1A2EB0C03934313EACC1317D1EA
:1013000050F8042B51F8043B9A4215D1A2EB0C0380
:10131000934313EACC130BD150F8042B51F8043B40
:101320009A4209D1A2EB0C03934313EACC13DBD00E
:101330004FF00000704700BFD01A01BAB1FA81F136
:1013400001F0180122FA01F0CB40DBB2C0B2C01AA2
:10135000C1F120012CFA01F3D11A914311EAC31112
:10136000E6D1704701491820ABBEFEE72600020017
:101370007047000080B582B042F20040C4F2010024
:1013800000688007002831D5FFE742F23C40C4F2F4
:10139000010000686FF31F3001F052FA40F60002BE
:1013A000C6F2206246F26663C3F64A7301F05CFA45
:1013B0000A4640F2F841C2F200014A60086008683B
:1013C0004968002201920023C4F2590301F04CFA4B
:1013D000019A0023CCF2490301F08AF90A4640F24F
:1013E000F041C2F200014A600860FFE742F20041AA
:1013F000C4F201010020086002B080BD80B541F256
:101400001801C4F20201086840F00400086040F6C8
:101410000002C4F20102106820F0C000106041F226
:101420000402C4F2020210681060086840F4007000
:10143000086042F20841C4F20101086840F004006B
:101440000860FFE742F20840C4F20100006840076C
:10145000002801D4FFE7F5E7122000F0BBFC42F2C0
:101460001041C4F20101082008602020086042F207
:101470000441C4F20101086042F20841C4F20101D2
:10148000086820F4E0400860086840F400500860F4
:10149000086840F001000860086840F400400860F7
:1014A00042F23841C4F20101086820F4401008609B
:1014B000086820F478200860086840F4004008605C
:1014C00080BD00006C21C4F20201086820F0010018
:1014D0000860FFE745F21440C4F20000008808B934
:1014E000FFE7F7E745F20041C4F20001088840F445
:1014F000007008800421C4F20201086840F4001062
:101500000860704780B541F21401C4F20201086816
:1015100040F0010008606C21C4F20201086840F04C
:1015200080000860086840F0100008607422C4F26F
:10153000020245F21040C4F200001060086840F05A
:1015400002000860102000F02DFC80BD82B00190E8
:10155000009101987821C4F202010860009870217E
:10156000C4F2020108606C21C4F20201086840F074
:101570000100086002B0704741F21801C4F2020194
:10158000086840F00800086040F60041C4F201011C
:10159000086840F040600860086840F040700860EB
:1015A000086840F040400860086840F0405008601B
:1015B0007047000080B541F21C01C4F202010868C6
:1015C00040F40010086041F20401C4F2020108680E
:1015D00040F48060086045F20441C4F200010888CC
:1015E00040F480500880088840F40060088045F28C
:1015F0001C42C4F20002108840F06400108045F2E2
:101600002042C4F2000248201080088840F4807014
:101610000880202000F0C6FB45F20041C4F2000122
:10162000088840F00100088080BD000080B588B0C7
:10163000AE2000F0F7F8D52000F0F4F8802000F09C
:10164000F1F88D2000F0EEF8142000F0EBF84020C7
:1016500000F0E8F8A12000F0E5F8C82000F0E2F87A
:10166000DA2000F0DFF8122000F0DCF8A82000F00B
:10167000D9F83F2000F0D6F8D32000F0D3F80020AE
:10168000019000F0CFF8202000F0CCF8019800F095
:10169000C9F8212000F0C6F8019800F0C3F87F20B7
:1016A000009000F0BFF8222000F0BCF8019800F094
:1016B000B9F8072000F0B6F8812000F0B3F80098E0
:1016C00000F0B0F8A42000F0ADF8A62000F0AAF8D1
:1016D000AF2000F0A7F801980690FFE70698B0F554
:1016E000806F0CDCFFE7069A40F2E801C2F20001CD
:1016F00000208854FFE7069801300690EEE740F29C
:10170000E801C2F200014020087040F20051C2F22C
:1017100000018020086000200590FFE70598072859
:1017200018DCFFE7059940F21400C2F20000405CAB
:1017300040F20051C2F200010B6840F2E802C2F22E
:101740000002D054086801300860FFE705980130B6
:101750000590E3E700200490FFE70498072818DCD1
:10176000FFE7049940F20400C2F20000405C40F23E
:101770000051C2F200010B6840F2E802C2F200021E
:10178000D054086801300860FFE7049801300490E5
:10179000E3E740F20051C2F200014FF4C07008606C
:1017A00000200390FFE70398072818DCFFE7039960
:1017B00040F20C00C2F20000405C40F20051C2F264
:1017C00000010B6840F2E802C2F20002D05408683F
:1017D00001300860FFE7039801300390E3E7002041
:1017E0000290FFE70298072818DCFFE7029940F211
:1017F0000400C2F20000405C40F20051C2F200015D
:101800000B6840F2E802C2F20002D05408680130CE
:101810000860FFE7029801300290E3E7079808B0FC
:1018200080BD000080B582B08DF80300FFE745F26F
:101830001840C4F2000000888007002801D5FFE7A7
:10184000F5E7782000F046F840F2E800C2F2000028
:10185000002101709DF8031041700221FFF776FE10
:10186000019802B080BD000080B582B040F2005106
:10187000C2F2000101918020086040F2F841C2F2FA
:1018800000010868496800F0BDFA01994FF4C07082
:10189000086040F2F041C2F200010868496800F0B7
:1018A000B1FAFFE745F21840C4F200000088800753
:1018B000002801D5FFE7F5E7782000F00BF840F2AB
:1018C000E800C2F2000040F20141FFF73FFE02B023
:1018D00080BD000081B08DF8030045F20041C4F2E4
:1018E0000001088840F480700880FFE745F214404A
:1018F000C4F200000088C00708B9FFE7F6E745F228
:101900001440C4F2000000889DF8030045F2104125
:10191000C4F200010880FFE745F21440C4F2000061
:1019200000888007002801D4FFE7F5E745F214405E
:10193000C4F20000008845F21840C4F2000000889C
:1019400001B0704780B500F001F880BD84B0002080
:101950000390029041F20001C4F20201086840F4D1
:1019600080300860FFE741F20000C4F20200006826
:1019700000F400300290039801300390FFE70299D1
:101980000020019039B9FFE70398B0F5A06018BFB7
:1019900001200190FFE70198C0070028E3D1FFE78D
:1019A00041F20000C4F2020000688003002803D561
:1019B000FFE70120029002E000200290FFE702987A
:1019C000012851D1FFE742F20001C4F20201086888
:1019D00040F010000860086820F003000860086804
:1019E00040F00200086041F20401C4F202010091DB
:1019F0000868086008680860086840F4806008604B
:101A0000086820F47C100860086840F4E81008605A
:101A100041F20001C4F20201086840F080700860E1
:101A2000FFE741F20000C4F20200006880010028D4
:101A300001D4FFE7F5E741F20401C4F202010868AE
:101A400020F003000860086840F002000860FFE72B
:101A500041F20400C4F20200006800F00C00082803
:101A600001D0FFE7F4E700E0FFE704B070470000B3
:101A70007047000041F20001C4F20201086840F022
:101A800001000860FFE741F20000C4F202000068B4
:101A90008007002801D4FFE7F5E741F20401C4F212
:101AA000020100200860FFE741F20400C4F20200D6
:101AB000006810F00C0F01D0FFE7F5E741F20001DC
:101AC000C4F20201086820F08070086041F204024C
:101AD000C4F20202106820F47C101060106840F418
:101AE000A0101060086840F080700860FFE741F2C5
:101AF0000000C4F2020000688001002802D4FFE761
:101B000000BFF4E741F20401C4F20201086820F0CA
:101B100003000860086840F002000860FFE741F237
:101B20000400C4F20200006800F00C00082801D094
:101B3000FFE7F4E77047000084B0002003900290B4
:101B4000019041F20400C4F20200006800F00C00B1
:101B500003900398009040B1FFE7009804280ED04E
:101B6000FFE70098082814D056E040F20001C2F2C6
:101B7000000141F20020C0F27A00086056E040F215
:101B80000001C2F2000141F20020C0F27A000860B8
:101B90004CE041F20400C4F20200016801F470114B
:101BA0000291006800F4803001900299022000EB5D
:101BB00091400290019860B9FFE7029840F6001149
:101BC000C0F23D01484340F20001C2F2000108604A
:101BD00021E041F20400C4F2020000688003002802
:101BE0000CD5FFE7029840F60011C0F23D014843D2
:101BF00040F20001C2F2000108600BE0029841F2DD
:101C00000021C0F27A01484340F20001C2F2000113
:101C10000860FFE7FFE709E040F20001C2F20001BF
:101C200041F20020C0F27A000860FFE741F20400B0
:101C3000C4F202000068C0B2010942F64450C0F686
:101C40000000405C0390039A40F20001C2F20001E0
:101C50000868D040086004B07047000080B541F2C9
:101C60000002C4F20202106840F00100106041F26C
:101C70000401C4F2020108680023CFF6FF031840F4
:101C8000086010684FF6FF73CFF6F66318401060D7
:101C9000106820F480201060086820F4FE000860BE
:101CA00041F20801C4F202014FF41F000860FFF77F
:101CB00049FE4EF60851CEF200014FF00060086078
:101CC00080BD000041F21C01C4F20201086840F02E
:101CD000010008604FF080410120088040F20000C0
:101CE000C2F20000006841F25971CDF2B711A0FBB9
:101CF00001014FF0FF3000EB51302821C4F2000108
:101D000008802C21C4F200014FF4FA6008800421FD
:101D1000C4F20001088840F02000088070470000ED
:101D200080B540F21041C4F20001088820F00100A3
:101D30000880FFF799FD80BD80B541F21C01C4F217
:101D40000201086840F00200086040F20041C4F25D
:101D500000010120088040F20000C2F2000000688B
:101D600041F25971CDF2B711A0FB01014FF0FF30E4
:101D700000EB513040F22841C4F20001088040F2EB
:101D80002C41C4F200014FF4FA60088040F20C418B
:101D9000C4F20001088840F0010008801D2000F016
:101DA00019F880BD81B08DF803009DF9030000286B
:101DB0000ED4FFE79DF9031001F01F0201209040AF
:101DC0004A094EF20011CEF2000141F82200FFE76D
:101DD00001B0704781B08DF803009DF90300002821
:101DE0000ED4FFE79DF9031001F01F02012090407F
:101DF0004A094EF20011CEF2000141F82200FFE73D
:101E000001B0704780B586B005910490049A059B97
:101E100042F65451C0F600010DF10A00FEF72AFA0D
:101E200040F20051C2F20001086810300860002042
:101E30000190FFE7019805282FDCFFE700200090C4
:101E4000FFE70098072823DCFFE701990DF10A005E
:101E5000415C40F21C00C2F2000000EBC10000999E
:101E600008444FF69861CFF6FF71405C40F2005194
:101E7000C2F200010B6840F2E802C2F20002D05444
:101E8000086801300860FFE7009801300090D8E74B
:101E9000FFE7019801300190CCE706B080BD00005B
:101EA00080B582B000200190FFF7E4FDFFF744FE0B
:101EB000FFF762FBFFF77EFBFFF724FBFFF79EFABD
:101EC000FFF7B4FBFFF7FEFEFFF736FFFFE7FEE785
:101ED0005FEA400C08BF91F0000F4FEA8C234FEAF5
:101EE000C12243EA51514FEA1C5018BF00F5F0409F
:101EF0004FEA300018BF41F000415FEA6C5C00F02F
:101F00002980BCF1FF3F08BF40F080407047130CB0
:101F100006BF12044FF0100C4FF0000C130E04BF5C
:101F200012020CF1080C130F04BF12010CF1040C87
:101F3000930F04BF92000CF1020CD30F04BF5200A8
:101F40000CF1010C11464FF00002A0F11F00A0EBB4
:101F50000C00704711F0004F08BF704731F000418E
:101F60003FF4D5AF0B0C06BF09044FF0100C4FF037
:101F7000000C0B0E04BF09020CF1080C0B0F04BF80
:101F800009010CF1040C8B0F04BF89000CF1020C49
:101F9000CB0F04BF49000CF1010CCCF1200322FA55
:101FA00003F341EA030102FA0CF2A0EB0C0000F18A
:101FB0000100704723F07F4720F07F4C80EA030048
:101FC00000F00040ACEB070303F57C5303F1FF0383
:101FD0002DE9804909B44FEA144324EA03484FEA43
:101FE000154B25EA0B4E0FF2042606EB13273E781D
:101FF00003FB0667C7F5000707FB06F64FEAD64660
:1020000006F102064FEA543707FB066CCCF1005C80
:102010004FEA1C472CEA074C0CFB06F507FB06F4BD
:1020200004EB15464FEA961649085FEA320234BFC0
:1020300000204FF000404FEAD13706FB07FC4FEA83
:102040001C4C0CFB0BF7D21B03FB0CF761EB0701DD
:102050000CFB0EF7B0EB074072EB17420CFB08F7D6
:1020600034BFA2EB0742B2EB074261EB17414FEAE4
:102070000C444FEA910706FB07FC4FEA1C4C0CFB93
:102080000BF7B0EBC74072EB573203FB0CF734BFD2
:10209000A2EBC742B2EBC74261EB57310CFB0EF724
:1020A000B0EBC70072EB57720CFB08F734BFA2EB22
:1020B000C702B2EBC70261EB57714FEA816141EA97
:1020C00092114FEA826242EA90124FEA806004EB7A
:1020D000CC04039F4FEAD13706FB07FC4FEA1C4CA8
:1020E0000CFB0BF7D21B03FB0CF761EB07010CFB9E
:1020F0000EF7B0EB074072EB17420CFB08F734BF4A
:10210000A2EB0742B2EB074261EB17414FEA8C5555
:1021100004EB9C244FEA910706FB07FC4FEA1C4C9A
:102120000CFB0BF7B0EBC74072EB573203FB0CF71D
:1021300034BFA2EBC742B2EBC74261EB57310CFB95
:102140000EF7B0EBC70072EB57720CFB08F734BF09
:10215000A2EBC702B2EBC70261EB57714FEA816194
:1021600041EA92114FEA826242EA90124FEA80609D
:1021700015EB4C2544F100044FEAD13706FB07FC70
:102180004FEA1C4C0CFB0BF7D21B03FB0CF761EB6B
:1021900007010CFB0EF7B0EB074072EB17420CFB8C
:1021A00008F734BFA2EB0742B2EB074261EB1741DD
:1021B0004FEA813141EA92414FEA823242EA90424B
:1021C0004FEA80304FEA0C7615EB1C1544F1000401
:1021D00048EA03434EEA0B484FF0000EB2EB080CFE
:1021E00071EB030724BF624639464EEB0E0E4FF0EB
:1021F000000B0018524149414BEB0B0BB2EB080CA2
:1022000071EB03077BF1000B24BF624639464EEBAE
:102210000E0E4FF0000B0018524149414BEB0B0BD7
:10222000B2EB080C71EB03077BF1000B24BF624695
:1022300039464EEB0E0E51EA020718BF46F0010672
:1022400016EB0E7655F1000254F1000103D5BDE8FE
:102250008901BDE80088BDE88901BDE80048B619DC
:10226000524141EB0101A3F10103704780807F7E61
:102270007D7C7B7A797877767675747372717170FC
:102280006F6E6E6D6C6C6B6A6A69686867666665AE
:102290006464636362616160605F5F5E5E5D5D5C3C
:1022A0005C5B5B5A5A5959585857575656555555AD
:1022B0005454535352525251515050504F4F4F4E0D
:1022C0004E4D4D4D4C4C4C4B4B4B4A4A4A4949495B
:1022D000484848474747474646464545454444449D
:1022E0004443434343424242424141419C46002BC6
:1022F00030D477002BD04FEA37071CB503B44FF02A
:1023000010004FF01001BAF1000F06D0BCF1000F21
:10231000DCBF40F0080040F008014FF000000FBCA7
:10232000BDE810400BF1010BBBF1010F08BF5FEAE4
:10233000170722BF12F1010211F101014FF0004114
:1023400043F1000300F0004043EA00007047F9D376
:102350005708D0E746EA06464FEA164613F1400F03
:102360001FDD13F1200FDFBF16430A460021203383
:102370005B42BED0C3F1200746EA06464FEA164646
:1023800002FA07F746EA070622FA03F2C3F120072A
:1023900001FA07F742EA070221FA03F14FF00003BE
:1023A000A7E746EA020646EA06464FEA164646EA26
:1023B0000106BCBF46EA0646360C4FF000034FF05C
:1023C00000024FF0000194E72DE9804C70B49A466A
:1023D000934691E8380007C831EA400C48BF34EA18
:1023E000430C03D5FFF7E6FDFFF780FFF0BCBDE827
:1023F000008C2DE9804C70B49A46934691E83800E1
:1024000007C810F0804F08BF13F0804F03D100F0D1
:1024100005F8FFF76BFFF0BCBDE8008C20F07F47AC
:1024200023F07F4C80EA030000F0004007EB0C0330
:10243000A3F57C53A3F1FE0392F0000F00F0B380EC
:1024400095F0000F00F077802DE901494FEA114027
:1024500021EA00484FEA144624EA064700FB06FC3E
:1024600008FB06F607FB08F818EB06484CEB164C81
:1024700000FB07F718EB07484CEB17404FEA124BED
:1024800022EA0B4E4FEA154625EA06470BFB06FCEF
:102490000EFB06F607FB0EFE1EEB064E4CEB164C33
:1024A0000BFB07F71EEB074E4CEB174B18EB0B081B
:1024B00040F1000018EB0E0B58EB000840F1000053
:1024C0008F1A4FF000014FF000063CBFC943661B56
:1024D00014BFB5EB040C00213CBFC943F61B4FEA07
:1024E000174427EA04454FEA1C472CEA074C04FB33
:1024F000076205FB07F70CFB05F616EB074642EBF8
:10250000174204FB0CFC16EB0C4642EB1C421BEB87
:10251000060658EB020241414EEA8E0E46EA9E063E
:1025200001D5BDE80189B619524141EB0101A3F182
:102530000103BDE801894FEA144524EA05464FEA44
:10254000114721EA074C05FB07F406FB07F70CFBD4
:1025500006F111EB074144EB174405FB0CFC11EBB2
:102560000C4144EB1C444FEA124722EA074C05FB9E
:1025700007F206FB07F70CFB06F616EB074642EBE5
:10258000174205FB0CFC16EB0C4642EB1C456A1887
:1025900054F1000148BF7047B619524141EB0101A7
:1025A000A3F10103704795F0000F37D04FEA1142B5
:1025B00021EA02464FEA144724EA074C02FB07F1DE
:1025C00006FB07F70CFB06F414EB074441EB17413D
:1025D00002FB0CFC14EB0C4441EB1C414FEA154789
:1025E00025EA074C02FB07F506FB07F70CFB06F68E
:1025F00016EB074645EB174502FB0CFC16EB0C46A9
:1026000045EB1C42121951F1000148BF7047B61941
:10261000524141EB0101A3F1010370474FEA144518
:1026200024EA05464FEA114721EA074C05FB07F16A
:1026300006FB07F70CFB06F212EB074241EB1741D2
:1026400005FB0CFC12EB0C4251EB1C414FF0000659
:1026500048BF7047921841EB0101A3F10103704795
:10266000490050EAC12018BF04204A0D18BF40F0AD
:10267000010040F2FF72B2EB515F08BF40F0020070
:10268000012808BF0520704730380A2801D20120F0
:10269000704700207047000010B500290AD0087864
:1026A000002807D005487844FEF71CFE002801D01A
:1026B000002010BD0248784410BD0000D206000082
:1026C000CA06000010B500290AD00878002807D0F3
:1026D00005487844FEF706FE002801D0002010BD12
:1026E0000248784410BD0000C2060000BA0600008F
:1026F00010B591EA030F48BF83F0004300F1BA819F
:10270000841A71EB030C05D2121943EB0C03001B66
:1027100061EB0C014FEA1154A4EB135CDFF81CE1F0
:102720001EEA430F18BF9EEA445F00F0748021EA5E
:10273000045123EA0E0343F48013DCF1200E32D35C
:1027400022FA0CFE10EB0E0023FA0CFE41EB0E01F8
:10275000CCF1200E03FA0EFE10EB0E00CCF1200E91
:1027600051F10001B1F5801F32D201EB045112FA90
:102770000EF2BDE8104058BF7047401C38BF5FEAFA
:10278000420218BF7047002814BF20F0010041F139
:1027900000014FEA410313F5001F38BF7047A1F154
:1027A000C04100F059B9012A43EB0302ACF1200CFF
:1027B000DCF11F0E32BF4FF0000E23FA0CF310EBCA
:1027C000030041EB0451B4EB115FD0D0A1EB0451F5
:1027D00001F58011490801EB04515FEA30000ED386
:1027E00050F1000038BF12FA0EFE08D1BDE81040CB
:1027F000C9E7401C38BF5FEA4202CAD1C3E7BDE85F
:1028000010404FEA410313F5001F38BF7047A1F194
:10281000C04100F021B99EEA445F08D011EA5E0F82
:10282000BDE8104004BF01F0004100207047BDE842
:10283000104070B500F0C2F864FBBE3E0000E0FF3F
:10284000B0FA80F310FA03F10AD0C3F11D0303F5C7
:1028500080634FEA03524FEA415002EBD1217047A7
:102860004FF000007047000070B5DFF848C11CEA67
:10287000111E1EBF1CEA13159EEA0C0F95EA0C0FE1
:1028800000F06F8081EA03044EEAD47EAE4421EA70
:102890004C1123EA4C1341F4801143F48013AEF140
:1028A0007F7EA1FB024CA0FB0365361955EB0C059E
:1028B000A1FB034C4CF10003A0FB021C16EB0C0621
:1028C000654153F10003094218BF46F0010613F4B5
:1028D000007F0BD14FEA03314FEA053041EA155131
:1028E00040EA165034036FF003020AE04FEAC321B6
:1028F0004FEAC52041EA555140EA5650F4026FF0C4
:10290000020202EB2E4201EB025585EACE710AD09B
:102910005FEA440C18BF24F0004450F1000041F17C
:10292000000120EAD47040F2FE7C624500D270BD06
:10293000A84214BF4FF080444FF04044002E08BF1F
:102940000024BEF1806FA8BFA1F1C041BDE8704076
:1029500080F2828001F1C04101F000414FF000009F
:1029600070470CEA13159EEA0C0F18BF95EA0C0F7E
:1029700006D081EA030E4FF000000EF0004170BD5A
:1029800000F01CF88900013E00F007B800F009B81B
:102990004FEA430C5FEA5C5C08D081EA030100F077
:1029A0005BB84FEA410C5FEA5C5CF6D102494FF03C
:1029B000000070470000FF070000F87F0EF1020ED4
:1029C0002EF0030E5EF8046B364205D4012A43EB69
:1029D000030515F5001F12D8012841EB010C1CF569
:1029E000001F0CD80ED14FEAD17C0CEB4C0C0CF133
:1029F000020C15F5001F08BF4CEBD37C04E04FF030
:102A0000080C01E04FEAD37C0CEB4C0526FA05F6E6
:102A100006F00706B6F1040C06D20EEB860CBDE8F4
:102A200070404CF0010C6047DFE80CF0090B02022B
:102A30004FF00041A1F500214FF0000070BD194694
:102A40001046012851EB010418BFD4F5001484BFCF
:102A5000002001F0004170BD0808A0F500114FEA08
:102A60003101704710B591EA030F48BF83F000436E
:102A70003FF546AE841A71EB030C07D28CF0004C84
:102A8000121943EB0C03001B61EB0C014FEA1154CC
:102A9000A4EB135CDFF8A4E11EEA430F18BF9EEA23
:102AA000445F00F0B48021EA045123EA6E035242ED
:102AB000C3EB6E0338BF5B1EDCF1200E25D322FA78
:102AC0000CFE10EB0E0043FA0CFE41EB0E01CCF1B4
:102AD000200E03FA0EFE10EB0E00CCF1200E51F189
:102AE000000129D401EB045112FA0EF2BDE81040A6
:102AF00058BF7047401C1CBFB2F1004F7047002800
:102B00000CBF491C20F00100704712EB020E43EB92
:102B1000030218BF4FF0010E4EEA4202ACF1200C46
:102B2000DCF11E0E56D943FA0CFE10EB0E00CCF170
:102B30001E0E51F1FF31D5D50EF1010E12FA0EFE27
:102B4000404141EB010101EB445C5FEA5C5C10D960
:102B500001EB045110EBDE7038BFBEF1004FBDE851
:102B6000104018BF704700280CBF491C20F001001E
:102B7000704734D24FEAD42C24F4006411F50011CC
:102B80001BD0B1FA81F20B3AA41AA41ED2F1200391
:102B9000914030FA03F31943904001EBCC7101EB03
:102BA0000451002CBDE81040A8BF704701F1C0419E
:102BB00001F000414FF000007047B0FA80F310FAC6
:102BC00003F102D1BDE810407047E41A173C4805F4
:102BD000C90AE2E701EB0451BDE810407047491013
:102BE0004FEA300001EB0451BDE8104002E04FF025
:102BF000000170474A0008BF0042F8D0B2F5001F3C
:102C000028BF704701F000414FF0000070479EEA76
:102C1000445F07D011EA5E0FBDE8104004BF0021F9
:102C200000207047BDE8104070B5FFF7C7FE00BF39
:102C300040DFF63E104683F0004170470000E0FFA1
:102C4000FDF75ABFFEF78EB800000000000000003C
:102C500030313233343536373839414243444546D2
:102C600040305800303132333435363738396162CC
:102C700063646566403078000400000800000000CE
:102C800000000002000100001030313233343536CC
:102C90003738396162636465667870003031323389
:102CA00034353637383941424344454658500000A0
:102CB00002400000000000A00000000005400000ED
:102CC000000000C8000000000C4000000000409C14
:102CD00000000000194000000020BCBE0000000001
:102CE00034400000BFC91B8E00000004B540000046
:102CF000504BCFD06607E2CF010000006C410000CE
:102D00003E8251AADFEEA73401000000D942000044
:102D1000DCB5A0E23A301F97FFFFFFFFB44500008B
:102D2000FD25A0C8E9A3C14FFFFFFFFFFF3F000043
:102D30000000008000000000FF3F00000000008055
:102D40000000000000000000000000000102030479
:102D50000607080925660000A42E000800000020D0
:102D60008400000028010008282F000888000020A7
:102D7000800A0000440100081C000000430000001D
:102D8000F8FFFFFF0C0000000E0000000F00000025
:102D90002E0000001001000043000000F8FFFFFFBC
:102DA000004040404040404040404141414141405E
:102DB0004040404040404040404040404040404013
:102DC00040050202020202020202020202020202A2
:102DD00002202020202020202020200202020202A7
:102DE00002029090909090901010101010101010FF
:102DF000101010101010101010101010020202020B
:102E0000020288888888888808080808080808084E
:102E1000080808080808080808080808020202024A
:102E20004000000000000000000000000000000062
:102E30000000000000000000000000000000000092
:102E40000000000000000000000000000000000082
:102E50000000000000000000000000000000000072
:102E60000000000000000000000000000000000062
:102E70000000000000000000000000000000000052
:102E80000000000000000000000000000000000042
:102E90000000000000000000000000000000000032
:102EA0000000000000A24A040066666666666600CE
:102EB000000303FFFF030300007FFFC0C0FF7F008C
:102EC0000018181818181800000000C0C0000000F2
:102ED000000000C0C0000000007EFFC3C3FF7E00F2
:102EE00000000607FFFF000000F2FBDBDBDF8E00C7
:102EF000005ADBDBDBFF7E00001F1F1818FFFF00FE
:102F0000004FCFCBCBFB7300007EFFCBCBFB72001F
:102F100000C3E3733B1F0F00007EFFCBCBFF7E009F
:082F2000004EDFD3D3FF7E0059
:0400000508000235B8
:00000001FF
