:020000040800F2
:100000008006002089010008910100089301000882
:100010009501000897010008990100080000000000
:100020000000000000000000000000009B0100082C
:100030009D010008000000009F010008C50600089F
:10004000A3010008A3010008A3010008A301000800
:10005000A3010008A3010008A3010008A3010008F0
:10006000A3010008A3010008A3010008A3010008E0
:10007000A3010008A3010008A3010008A3010008D0
:100080004502000885020008A3010008A30100083A
:10009000A3010008A3010008A3010008A3010008B0
:1000A000A3010008A3010008A3010008A3010008A0
:1000B000A3010008A301000819090008A301000812
:1000C00015040008A3010008A3010008A30100080B
:1000D000A3010008A3010008A3010008A301000870
:1000E000A3010008A3010008A301000800F002F822
:1000F00000F03AF80AA090E8000C82448344AAF188
:100100000107DA4501D100F02FF8AFF2090EBAE885
:100110000F0013F0010F18BFFB1A43F0010318473B
:10012000600C0000800C0000103A24BF78C878C131
:10013000FAD8520724BF30C830C144BF04680C60ED
:10014000704700000023002400250026103A28BF35
:1001500078C1FBD8520728BF30C148BF0B60704739
:100160001FB51FBD10B510BD00F031F81146FFF7E7
:10017000F7FF00F02BFC00F04FF803B4FFF7F2FF9D
:1001800003BC00F057F800000948804709480047C1
:10019000FEE7FEE7FEE7FEE7FEE7FEE7FEE7FEE737
:1001A000FEE7FEE704480549054A064B7047000094
:1001B000B1080008ED000008800000208006002043
:1001C000800200208002002070477047704775460B
:1001D00000F02CF8AE4605006946534620F00700B3
:1001E000854618B020B5FFF7DDFFBDE820404FF091
:1001F00000064FF000074FF000084FF0000BAC4630
:10020000ACE8C009ACE8C009ACE8C009ACE8C0097A
:1002100021F007018D46704710B50446AFF300800A
:100220002046BDE81040FFF7A8BF00000048704717
:100230000800002001491820ABBEFEE7260002009E
:10024000704700006C21C4F20201086820F0010030
:100250000860FFE745F21440C4F20000008808B9C6
:10026000FFE7F7E745F20041C4F20001088840F4D7
:10027000007008800421C4F20201086840F40010F4
:100280000860704780B582B08021C4F2020108681E
:1002900020F00100086045F20041C4F20001088826
:1002A00040F4007008800421C4F20201086840F0A4
:1002B0000070086000200090019040F26800C2F2D7
:1002C0000000017801910199490001914178C90923
:1002D00041704178019808430190019800F0E4FCD6
:1002E00000F0B6FC009A0023C3F6E07300F0B2FB06
:1002F00000F07EFB40F27C01C2F20001086002B017
:1003000080BD000080B582B041F21401C4F2020148
:10031000086840F0010008606C21C4F2020108681E
:1003200040F080000860086840F010000860742207
:10033000C4F2020245F21040C4F2000001901060C5
:10034000086840F002000860102000F027FB0198C8
:100350008021C4F202010A6842F080020A60882209
:10036000C4F202021060086840F002000860112028
:1003700000F014FB02B080BD82B001908DF8031034
:1003800001988C21C4F2020108609DF803008421C9
:10039000C4F2020108608021C4F20201086840F042
:1003A0000100086002B0704782B001908DF8031020
:1003B00001987821C4F2020108609DF803007021C1
:1003C000C4F2020108606C21C4F20201086840F026
:1003D0000100086002B0704741F21801C4F2020146
:1003E000086840F00800086040F60041C4F20101CE
:1003F000086840F040600860086840F0407008609D
:10040000086840F040400860086840F040500860CC
:100410007047000081B045F21440C4F2000000882B
:10042000B8B1FFE745F20041C4F20001088840F48A
:10043000007008806C21C4F20201086820F00100FD
:1004400008608021C4F20201086820F00100086001
:10045000FFE7009801B0704780B541F21C01C4F27B
:100460000201086840F40010086041F20401C4F27F
:100470000201086840F48060086045F20441C4F25B
:100480000001088840F480500880088840F400602B
:10049000088045F21C42C4F20002108840F064005B
:1004A000108045F22042C4F20002482010800888E3
:1004B00040F480700880202000F070FA45F200417E
:1004C000C4F20001088840F00100088080BD0000EF
:1004D00080B5FFE745F21840C4F2000000888007AD
:1004E000002801D5FFE7F5E7902000F01DF840F265
:1004F0007200C2F20000002101700121FFF754FFD9
:1005000045F20041C4F20001088840F48060088090
:10051000912000F009F840F26800C2F200000221C8
:10052000FFF72AFF80BD000081B08DF8030045F27F
:100530000041C4F20001088840F480700880FFE7A1
:1005400045F21440C4F200000088C00708B9FFE774
:10055000F6E745F21440C4F2000000889DF803005D
:1005600045F21041C4F200010880FFE745F2144053
:10057000C4F2000000888007002801D4FFE7F5E7F7
:1005800045F21440C4F20000008845F21840C4F25D
:100590000000008801B0704780B500F001F880BD10
:1005A00084B000200390029041F20001C4F20201E5
:1005B000086840F480300860FFE741F20000C4F2B0
:1005C0000200006800F400300290039801300390AC
:1005D000FFE702990020019039B9FFE70398B0F5D1
:1005E000A06018BF01200190FFE70198C007002814
:1005F000E3D1FFE741F20000C4F20200006880038B
:10060000002803D5FFE70120029002E000200290BD
:10061000FFE70298012851D1FFE742F20001C4F23E
:100620000201086840F010000860086820F003002C
:100630000860086840F00200086041F20401C4F25A
:10064000020100910868086008680860086840F4C2
:1006500080600860086820F47C100860086840F436
:10066000E810086041F20001C4F20201086840F09D
:1006700080700860FFE741F20000C4F202000068E9
:100680008001002801D4FFE7F5E741F20401C4F23C
:100690000201086820F003000860086840F00200CA
:1006A0000860FFE741F20400C4F20200006800F0B5
:1006B0000C00082801D0FFE7F4E700E0FFE704B0F2
:1006C000704700007047000041F20001C4F20201CF
:1006D000086840F001000860FFE741F20000C4F242
:1006E000020000688007002801D4FFE7F5E741F227
:1006F0000401C4F2020100200860FFE741F2040097
:10070000C4F20200006810F00C0F01D0FFE7F5E71B
:1007100041F20001C4F20201086820F08070086014
:1007200041F20402C4F20202106820F47C1010604E
:10073000106840F4A0101060086840F080700860F5
:10074000FFE741F20000C4F20200006880010028C7
:1007500002D4FFE700BFF4E741F20401C4F2020152
:10076000086820F003000860086840F00200086094
:10077000FFE741F20400C4F20200006800F00C0040
:10078000082801D0FFE7F4E77047000084B000209C
:1007900003900290019041F20400C4F2020000684C
:1007A00000F00C0003900398009040B1FFE7009820
:1007B00004280ED0FFE70098082814D056E040F235
:1007C0000001C2F2000141F20020C0F27A0008608C
:1007D00056E040F20001C2F2000141F20020C0F2F6
:1007E0007A0008604CE041F20400C4F202000168A3
:1007F00001F470110291006800F4803001900299B8
:10080000022000EB91400290019860B9FFE7029846
:1008100040F60011C0F23D01484340F20001C2F22F
:100820000001086021E041F20400C4F20200006807
:10083000800300280CD5FFE7029840F60011C0F2B3
:100840003D01484340F20001C2F2000108600BE0A4
:10085000029841F20021C0F27A01484340F20001BF
:10086000C2F200010860FFE7FFE709E040F2000183
:10087000C2F2000141F20020C0F27A000860FFE7F6
:1008800041F20400C4F202000068C0B2010940F65F
:100890006E50C0F60000405C0390039A40F20001E5
:1008A000C2F200010868D040086004B07047000040
:1008B00080B541F20002C4F20202106840F001006B
:1008C000106041F20401C4F2020108680023CFF66F
:1008D000FF031840086010684FF6FF73CFF6F66309
:1008E00018401060106820F480201060086820F420
:1008F000FE00086041F20801C4F202014FF41F003B
:100900000860FFF749FE4EF60851CEF200014FF0A5
:100910000060086080BD000080B540F61001C4F2A0
:100920000001088820F001000880FFF7D1FD80BD9C
:1009300080B541F21C01C4F20201086840F00400D5
:10094000086040F60001C4F200010120088040F276
:100950000000C2F20000006841F25971CDF2B711F7
:10096000A0FB01014FF0FF3000EB513040F62801B1
:10097000C4F20001088040F62C01C4F2000140F6E8
:10098000B830088040F60C01C4F20001088840F03D
:10099000010008801E2000F001F880BD81B08DF8B4
:1009A00003009DF9030000280ED4FFE79DF9031012
:1009B00001F01F02012090404A094EF20011CEF2D0
:1009C000000141F82200FFE701B0704780B582B016
:1009D00000200190FFF778FEFFF7D8FEFFF7FCFC40
:1009E000FFF73AFDFFF78EFCFFF7A2FFFFE7FEE7F8
:1009F00021F0004201F00043A2F16052B2F5801FE5
:100A000028BFD2F17F6C0BD95FEA001C43EAC20217
:100A100042EB507018BF704728BF20F001007047AC
:100A2000B2F5801FBCBF184670474FEA410C1CF559
:100A3000001F02D2084600F095B970B500F0B4F876
:100A400000000089FFF7F6BF4FF00040A0F58000DE
:100A50007047000070B5DFF848C11CEA111E1EBFC8
:100A60001CEA13159EEA0C0F95EA0C0F00F06F803C
:100A700081EA03044EEAD47EAE4421EA4C1123EA13
:100A80004C1341F4801143F48013AEF17F7EA1FB3F
:100A9000024CA0FB0365361955EB0C05A1FB034C7A
:100AA0004CF10003A0FB021C16EB0C06654153F150
:100AB0000003094218BF46F0010613F4007F0BD172
:100AC0004FEA03314FEA053041EA155140EA16502A
:100AD00034036FF003020AE04FEAC3214FEAC52056
:100AE00041EA555140EA5650F4026FF0020202EB1F
:100AF0002E4201EB025585EACE710AD05FEA440C22
:100B000018BF24F0004450F1000041F1000120EA38
:100B1000D47040F2FE7C624500D270BDA84214BF82
:100B20004FF080444FF04044002E08BF0024BEF137
:100B3000806FA8BFA1F1C041BDE8704080F2828003
:100B400001F1C04101F000414FF0000070470CEA94
:100B500013159EEA0C0F18BF95EA0C0F06D081EA18
:100B6000030E4FF000000EF0004170BD00F01CF8C5
:100B70008900013E00F007B800F009B84FEA430CC5
:100B80005FEA5C5C08D081EA030100F05BB84FEAE1
:100B9000410C5FEA5C5CF6D102494FF000007047FF
:100BA0000000FF070000F87F0EF1020E2EF0030E8A
:100BB0005EF8046B364205D4012A43EB030515F5B4
:100BC000001F12D8012841EB010C1CF5001F0CD8A6
:100BD0000ED14FEAD17C0CEB4C0C0CF1020C15F54C
:100BE000001F08BF4CEBD37C04E04FF0080C01E081
:100BF0004FEAD37C0CEB4C0526FA05F606F0070607
:100C0000B6F1040C06D20EEB860CBDE870404CF039
:100C1000010C6047DFE80CF0090B02024FF00041C5
:100C2000A1F500214FF0000070BD194610460128C3
:100C300051EB010418BFD4F5001484BF002001F06B
:100C4000004170BD0808A0F500114FEA310170475E
:100C500043004FEAD30C4FEA3C0C43401FBF400710
:100C60000CF1605113F0FE4F70471CF0006F03D180
:100C70000CF00041002070470CF0004343EA507034
:100C800040EACC0010B500F027F800BF0000009249
:100C90004FEA0001FFF7D6BF4FF00041A1F5002158
:100CA0004FF000007047000010F0004148BF404284
:100CB000B0FA80F310FA03F2C3F19D030BD051EAAE
:100CC000C35101EB1220530638BF704700F10100F9
:100CD00008BF20F0010070470EF1020E2EF0030E47
:100CE0005EF8044B244204D44FEA4102B2F17F4F34
:100CF00011D84FEA4003B3F17F4F0CD80ED14FEA21
:100D0000D07C0CEB4C0C0CF1020CB2F17F4F08BF05
:100D10004CEBD17C04E04FF0080C01E04FEAD17CB1
:100D20000CEB4C0324FA03F404F00704B4F1040CB4
:100D300006D20EEB840CBDE810404CF0010C60476D
:100D4000DFE80CF0070802024FF00040A0F5800039
:100D500010BD0846420018BFD2F1807288BF00F073
:100D6000004010BDFF2141EAD050C005704700008F
:100D7000000000000000010203040607080900004B
:100D8000A00D000800000020040000002801000859
:100D9000A40D0008080000207806000044010008A7
:040DA00000A24A045F
:040000050800018965
:00000001FF
